:020000040800F2
:10000000C808002029020008310200083302000855
:10001000350200083702000839020008000000001D
:100020000000000000000000000000003B0200088B
:100030003D020008000000003F020008150600080D
:10004000430200084302000843020008430200087C
:10005000430200084302000843020008430200086C
:10006000430200084302000843020008430200085C
:10007000430200084302000843020008430200084C
:10008000430200084302000843020008430200083C
:10009000430200084302000843020008430200082C
:1000A000430200084302000843020008430200081C
:1000B0007D060008A5060008C906000843020008DE
:1000C00043020008430200084302000843020008FC
:1000D00043020008A5070008AD070008B50700089F
:1000E00043020008430200084302000843020008DC
:1000F00043020008430200084302000843020008CC
:100100004302000843020008ED060008430200080D
:1001100043020008430200081107000835070008E1
:10012000430200084302000843020008430200089B
:10013000430200084302000843020008430200088B
:1001400000000000000000000000000000000000AF
:10015000430200084302000843020008430200086B
:10016000430200084302000843020008430200085B
:10017000430200084302000843020008430200084B
:100180004302000800F002F800F03EF80AA090E8F0
:10019000000C82448344AAF10107DA4501D100F042
:1001A00033F8AFF2090EBAE80F0013F0010F18BFD1
:1001B000FB1A43F0010318474014000060140000CC
:1001C000103A24BF78C878C1FAD8520724BF30C883
:1001D00030C144BF04680C60704700000023002455
:1001E00000250026103A28BF78C1FBD8520728BF47
:1001F00030C148BF0B6070471FB500F021FF00F011
:100200005DF81FBD10B510BD00F075F81146FFF781
:10021000F3FF00F08BFD00F093F803B4FFF7F2FF5B
:1002200003BC00F05DF8000009488047094800471A
:10023000FEE7FEE7FEE7FEE7FEE7FEE7FEE7FEE796
:10024000FEE7FEE704480549054A064B70470000F3
:100250002506000885010008C8020020C808002003
:10026000C8040020C80400204FF0000200B5134667
:1002700094469646203922BFA0E80C50A0E80C50C6
:10028000B1F12001BFF4F7AF090728BFA0E80C5077
:1002900048BF0CC05DF804EB890028BF40F8042B70
:1002A00008BF704748BF20F8022B11F0804F18BFDD
:1002B00000F8012B704770477047704770B5064CC7
:1002C0007C44064D7D4404E0204601680844804794
:1002D000241DAC42F8D170BD54130000541300002B
:1002E00001491820ABBEFEE7260002000048704717
:1002F0000800002070477546FFF7F8FFAE4605007E
:100300006946534620F00700854618B020B5FFF730
:1003100099FFBDE820404FF000064FF000074FF076
:1003200000084FF0000BAC46ACE8C009ACE8C009CF
:10033000ACE8C009ACE8C00921F007018D46704760
:1003400010B50446AFF300802046BDE81040FFF72B
:1003500064BF0000B0B51B4D0446287840B90220A8
:10036000FF21142802D029540130FAE70120287017
:10037000112C06D8204600F013F8013004D0FE20DE
:1003800000E0FF2040B2B0BD6878112801D9FD20FF
:10039000F8E7411C2844847000206970F2E700BF30
:1003A00010B5084900224B78934205D08C18A478E8
:1003B000844204D00132F7E74FF6FF7000E0D0B27C
:1003C00000B210BD68000020BCB5294904461E4893
:1003D0008C4208D01D498C4204D01D498C4232D138
:1003E000013000E00630012100F0CCFB032000F0DA
:1003F000DDFA002000F0B4FA01AD284600F09AFAC8
:100400004FF0807029460190204600F071FA0F48A5
:10041000844218BF20460721012200F0B2FA20468C
:10042000012100F0A9FA204600F088FA204600F0E9
:100430008AFA0028FAD1204600F089FA204600F016
:100440008BFA0028FAD1BCBD09001800003C01401D
:100450000028014080B500F0C1FC052000F07EFCC2
:1004600000F008F80248BDE88040FFF7ADBF00BFCC
:100470000024014080B500F0E7FC64484FF47A7135
:100480000068B0FBF1F00021421E0648B1EB126F8C
:1004900006D1054B5A60F0220270072299601A605B
:1004A000017080BD23ED00E010E000E02DE9FC418B
:1004B00080461F4840444FEAB024042C36D8684692
:1004C0001E4615460F4600F0D5FB082D8DF8076037
:1004D00000972BD8DFE805F00507090B2A10121446
:1004E0001A00042005E0182003E0282001E04FF462
:1004F0004170ADF8050010E0102008E0102000E089
:1005000008208DF8060040F2044004E008208DF831
:1005100006004FF48060ADF8040006480121204435
:1005200000F030FB6946404600F0ACFBBDE8FC81C2
:1005300000F8FEBF020018000121204600F0ECBCCC
:100540000021C0F803100160704700002DE9FE4350
:100550004F280FD80E462C49174601EB001254685D
:1005600044B101EB001191F80E90B9F1000F18BFE2
:10057000002E03D100252846BDE8FE83002FF9D0C8
:10058000224A07FB06F1002512689142F3D80821A0
:1005900000F0F4FB204600F0F7F8804620460021EA
:1005A00000F0FEF82046012100F0D8F8B8FBF6F084
:1005B000711EB0FBF7F0013882B2204600F094FCC7
:1005C0002046002100F097FC01A800F01FFD40F23A
:1005D00001108DF80850ADF809000D480190A9F1FF
:1005E0000100C1B203290DD8400001AAC1B22046C2
:1005F00000F098FC2046012100F00AFD2046012170
:1006000000F082FC4D46B6E75C10000800000020B8
:10061000070100010248016801310160704700BF15
:100620007402002010B51248D0F8801041F4700117
:10063000C0F880100F490A6842F001020A600A6897
:100640009207FCD54A6822F003024A604A6812F019
:100650000C0FFBD10022084C4A600B6823400B6052
:100660000A634FF41F028A604FF00061016010BD01
:1006700008ED00E000100240FFFFF2FE80B54FF0F1
:100680008040012100F048FC50B13348406800B17F
:1006900080474FF080400121BDE8804000F039BC28
:1006A00080BD00BF10B5074CFFF746FF48B12A4890
:1006B000806800B1804720460121BDE8104000F06D
:1006C00028BC10BD0004004010B5074CFFF734FFF4
:1006D00048B12148C06800B1804720460121BDE8EB
:1006E000104000F016BC10BD0008004010B5074CCB
:1006F000FFF722FF48B11848006900B18047204643
:100700000121BDE8104000F004BC10BD000C004009
:1007100010B5074CFFF710FF48B10F48406900B112
:10072000804720460121BDE8104000F0F2BB10BD1B
:100730000010004010B5074CFFF7FEFE48B1064818
:10074000806900B1804720460121BDE8104000F0DB
:10075000E0BB10BD0014004078020020F8B5094F3E
:100760000C46054600260E2E08BFF8BD57F8360089
:10077000A84205D107EBC6002146406800F002FA06
:100780000136F0E75C15000810B5044C206810B97C
:10079000024800F06BF9E068400010BDB402002090
:1007A00000F0B2BB0F4800F025B800BF0F4800F0C2
:1007B00021B800BF0E4800F01DB800BFB0B5084C0E
:1007C0000848094D04F57441A84708482146A84740
:1007D000074804F580612A46BDE8B040104700BFD5
:1007E00000440040A0000020990800083C010020BF
:1007F000D801002010B504460069202100F01BFC40
:10080000B8B1206900F00DFC218B628B013101F041
:100810007F01914203D0228B2183A118087761695F
:1008200009B12046884720692021BDE8104000F02A
:10083000FFBB10BD018B428B91420FBF4FF0FF30C9
:10084000418B0844007F7047018B428B914204BF6B
:100850004FF0FF307047418B428B013202F07F0234
:1008600042830844007F7047418B01837047B0B5D5
:100870000C4605462869802100F0DDFB0028F9D0F0
:100880002869214600F0D0FB0120B0BD018B408BD0
:10089000081A00F07F00704710B50A4B044600208C
:1008A0004FF47A722083C4E90410C4E90220802145
:1008B0000833C4E90030608304F11C00FFF7D4FC66
:1008C000204610BDCC15000800207047F8B514462E
:1008D0000D4606460027BC4208D03068E95D026834
:1008E0003046904708B10137F5E73C462046F8BD51
:1008F0000A78436802F0010223F4807343EA02227B
:1009000042604A78836862F3410383608A7883682F
:1009100002F0010223F4006343EAC2228260C97834
:10092000C26A013922F4700201F00F0142EA01515A
:10093000C16270474FF0807101607047816841F07B
:100940000801816070478068C0F3C000704781680B
:1009500041F00401816070478068C0F380007047F7
:10096000044900F00F000A6822F4702242EA0040B5
:100970000860704704240140826861F300028260CD
:1009800070478368072923F0007388BF03F1007361
:100990008360836861F3534302F0010183608268DE
:1009A00022F4801242EA015181607047A4490A682A
:1009B00060F38F32C0F383000A600A6860F31C7230
:1009C0000A6070479E4900F00F000A6822F0F002AA
:1009D00042EA001008607047994900F007000A6871
:1009E00022F4E06242EA002008607047944900F077
:1009F00007000A6822F4605242EAC020086070478B
:100A0000584901280A6822F0300208BF30320A60D3
:100A1000704700BF042828D8DFE800F00309121C43
:100A200022007F48026861F300020260704701F013
:100A300001007B490A6822F4803242EA004007E064
:100A400001F0010076490A6822F0807242EA0060F3
:100A5000086070477248026A61F3000202627047E0
:100A60006F48426A61F3000242627047B0B528499C
:100A70000A68C2F38103274A022B08D023BB0B6DFF
:100A80009B0521D5CB6A9B0148BF244A1CE00B681B
:100A90000C680D68C5F34175C4F383440DB90F2C80
:100AA00002D12D01013500E002252C44DB0301D4E5
:100AB000194A08E00B689B0305D50B6DC3F301339E
:100AC0000233B2FBF3F26243026015A40B68C3F376
:100AD0000313E35C164CDA4042600B68C3F3022355
:100AE000E35C22FA03F3C3600B68C3F3C223E35C45
:100AF0000424DA4082600B68096804EA9363C1F356
:100B0000813119440BA3595CB2FBF1F10161B0BD15
:100B10000410024000127A0000093D00006CDC0263
:100B2000000000000000000001020304060708099D
:100B3000F015000802040608020C0810384A010CDF
:100B400000F01F00895821FA00F000F00100704702
:100B5000044900F003000A6822F4405242EA0030DF
:100B600008607047541002402D490020030B0A68AA
:100B7000022B03D8013012F40032F7D00868C0F31A
:100B80004040704700F01F020123000C9340244AAC
:100B90000129815814BF994319438150704700BF00
:100BA00010B5C94B1C6850B144F4803401281C6056
:100BB0001C6814BF44F4003024F4003001E024F435
:100BC00080301860186861F395401860C1F3021016
:100BD000196860F35E711960186820F0004040EAFF
:100BE000C270186010BD00BF0D48016841F00101DE
:100BF000016001688907FCD5416821F0030141606B
:100C0000416811F00C0FFBD10021064B41600268D6
:100C10001A40026001634FF41F018160704700BFFA
:100C200000100240FFFFF2FEA7490A6860F30102CC
:100C30000A607047A4480068C0F38100704700BF95
:100C40000410024003490A680B689B1A8342FBD3D5
:100C5000704700BF740200204F280AD810225E4B54
:100C6000002908BF1422010103EB001059588089A4
:100C700088507047024A4FF6FF71C0E90012704772
:100C800000040001F0B58B790A88032B0AD05BB908
:100C90004979282913D0182912BF01F00F010261E8
:100CA00008210EE000210CE00C79C97903F008035B
:100CB00004F0040401F003012344194401E04261FB
:100CC0000821130616D000230F240025082D11D06B
:100CD00022FA05F6F6070AD0076804FA03F627EAAF
:100CE0000606066001FA03F607683E430660043311
:100CF0000135EBE7B2F5807F17D3120A00230F24EA
:100D00000025082D11D022FA05F6F6070AD047680B
:100D100004FA03F627EA0606466001FA03F6476876
:100D20003E43466004330135EBE7F0BDFFF792FB2D
:100D30002D20052100F022F82D200121FFF78CFF46
:100D40004FF47A70FFF77EFF2D200021FFF784FF1C
:100D50004FF47A70FFF776FFEEE7000005494FF693
:100D6000FF030A681A4060F30A2203481043086030
:100D7000704700BF0CED00E00000FA0510B54F28E9
:100D800014D80A46092912D0042A18D1124901EBB5
:100D900000118A6852B1CC7BFF2C07D00321FFF7EA
:100DA000EDFF2046BDE81040FFF7D4BA10BD4FF468
:100DB0007A7142F21072BDE81040FFF7C7BB064CD3
:100DC0000101635804EB0010818918460123BDE836
:100DD0001040FFF76BBB00BF5C10000880B5FFF749
:100DE00003FF01200121FFF715FEFFF7BDFE0028DC
:100DF000FBD002203B210122FFF7D2FE0020FFF7AB
:100E0000A7FE02200121FFF705FE1920FFF796FE3D
:100E10000128FAD10020FFF7D5FD0420FFF7E6FDF9
:100E20000420FFF7D9FD0120FFF7EAFD0220FFF7BC
:100E3000FBFEFFF7FFFE0228FBD10020FFF7E0FDDD
:100E4000BDE88040AFF30080B0B51E4C1E4DFFF7EB
:100E5000F1FE022808D048BB286D800526D5E86A37
:100E6000800148BF1A4C21E0286829682A68C2F32B
:100E70004172C1F383410AB90F2902D11201013233
:100E800000E002221144C00303D4104801FB00F427
:100E90000CE02868800301D44C4307E0286DC0F3C0
:100EA00001300230B4FBF0F000FB01F409480AA263
:100EB00004602968C1F30311515C24FA01F1016057
:100EC000B0BD00BF00127A000410024000093D00CE
:100ED000006CDC02000000200000000000000000A8
:100EE0000102030406070809C1628262416941F0F8
:100EF000010141617047026801F0070122F07002B0
:100F000042EA011101607047026861F30002026069
:100F10007047C943016170470069084018BF01204C
:100F200070470000F0B5537801F10804967803FA91
:100F300004F5354BA3F500649C46A04202D0604501
:100F4000634609D101F10907BE404768B6B2B7430D
:100F5000476047683E4346604668ADB2AE43466070
:100F6000466835430629456027D8DFE801F00426A6
:100F70000C2611261B001578702606EA0516054674
:100F800055F8187F0BE00546177855F8186F0DE0F7
:100F90001578702606EA0516054655F81C7F27F0D9
:100FA000700708E00546177855F81C6F07F007072B
:100FB00026F4E0463F033E432E604D00D678177975
:100FC0006B1C9E40A04204D06045634601D0016A7C
:100FD00007E0032303EB4101036A07FA01F189B239
:100FE0001943B3B219430162A0425679927918BFEE
:100FF000604503D1AB1C9A4092B2114306FA05F248
:1010000092B211430162F0BD00340140FFF798BA7B
:10101000426C01F0010122F4004242EAC131416414
:101020007047406880B270476FF35F21416070473E
:10103000C943016070470068084018BF012070472D
:10104000F1EE100A4FF6FF71C0F2C03120EA010044
:1010500040F04070E1EE100A7047000000080140C7
:101060000000004000240140010001000008014090
:10107000000000400024014002000201000801407D
:101080000000004000240140040003020008014069
:101090000000004000240140080004030008014053
:1010A000000000000024014010000004000801407E
:1010B000000000000024014020000005000801405D
:1010C00000040040002401404000010600080140E7
:1010D0000004004000240140800002070008014095
:1010E000002C014000000000000101FF0008014049
:1010F000002C014000000000000202FF0008014037
:10110000002C014000000000000403FF0008014023
:10111000002C014000000000000804FF000801400E
:101120000000000000000000001000FF0008014067
:101130000000000000000000002000FF0008014047
:101140000000000000000000004000FF0008014017
:101150000000004000000000008001FF000C014082
:10116000000400400024014001000308000C01407D
:10117000000400400024014002000409000C01406A
:101180000000000000000000040000FF000C01400F
:101190000000004000000000080002FF000C0140B9
:1011A0000004004000000000100001FF000C01409E
:1011B0000004004000000000200002FF000C01407D
:1011C0000008004000000000400001FF000C01404A
:1011D0000008004000000000800002FF000C0140F9
:1011E0000008004000000000000103FF000C014067
:1011F0000008004000000000000204FF000C014055
:101200000000004000000000000403FF000C01404B
:101210000000004000000000000804FF000C014036
:101220000000000000000000001000FF000C014062
:101230000000000000000000002000FF000C014042
:101240000018004000000000004001FF000C0140B9
:101250000000000000000000008000FF00100140BE
:1012600000000000002401400100000A00100140BD
:1012700000000000002401400200000B00100140AB
:1012800000000000002401400400000C0010014098
:1012900000000000002401400800000D0010014083
:1012A00000000000002401401000000E001001406A
:1012B00000000000002401402000000F0010014049
:1012C0000004004000000000400001FF0010014049
:1012D0000004004000000000800002FF00100140F8
:1012E0000004004000000000000103FF0010014066
:1012F0000004004000000000000204FF0010014054
:101300000000000000000000000400FF0010014089
:101310000000000000000000000800FF0010014075
:101320000000000000000000001000FF001001405D
:101330000000000000000000002000FF001001403D
:101340000000000000000000004000FF001001400D
:101350000000000000000000008000FF00140140B9
:101360000000000000000000010000FF0014014028
:101370000000000000000000020000FF0014014017
:101380000000000000000000040000FF0014014005
:101390000000000000000000080000FF00140140F1
:1013A0000000000000000000100000FF00140140D9
:1013B0000000000000000000200000FF00140140B9
:1013C0000000000000000000400000FF0014014089
:1013D0000000000000000000800000FF0014014039
:1013E0000000000000000000000100FF00140140A8
:1013F0000000000000000000000200FF0014014097
:101400000000000000000000000400FF0014014084
:101410000000000000000000000800FF0014014070
:101420000008004000000000001001FF001401400F
:101430000008004000000000002002FF00140140EE
:101440000008004000000000004003FF00140140BD
:101450000008004000000000008004FF0018014068
:101460000000000000000000010000FF0018014023
:101470000000000000000000020000FF0018014012
:101480000000000000000000040000FF0018014000
:101490000000000000000000080000FF00180140EC
:1014A0000000000000000000100000FF00180140D4
:1014B000004C014000000000200001FF0018014026
:1014C000004C014000000000400002FF00180140F5
:1014D0000000000000000000800000FF0018014034
:1014E0000000000000000000000100FF00180140A3
:1014F000002C014000000000000201FF0018014024
:101500000000000000000000000400FF001801407F
:10151000002C014000000000000802FF00180140FC
:101520000000000000000000001000FF0018014053
:10153000002C014000000000002003FF00180140C3
:10154000002C014000000000004004FF0018014092
:101550000000000000000000008000FF002C01409F
:101560000B0018000000004000001C0000040040B8
:1015700001001C000008004002001C00000C00409C
:1015800003001C000010004004001C000014004078
:1015900005001C00003401400D001800004C014003
:1015A00013001800005001401400180000540140BE
:1015B000150018000018004006001C00001C004028
:1015C00007001C000020004008001C000000000074
:1015D000000000006F080008CD080008C9080008D6
:1015E000690800088D080008490800083508000847
:1015F0000000000001020304201600080000002083
:1016000008000000C001000828160008080000209B
:10161000C0080000DC010008A5F1FFFF0000000089
:0816200000127A000000000036
:040000050800018569
:00000001FF
