:020000040800F2
:100000007006002025020008F5020008ED02000835
:10001000F1020008DF020008710300080000000080
:10002000000000000000000000000000F9020008CD
:10003000E302000800000000F7020008FB020008CD
:100040003F0200083F0200083F0200083F0200088C
:100050003F0200083F020008E50200083F020008D6
:100060003F0200083F0200083F0200083F0200086C
:100070003F0200083F0200083F0200083F0200085C
:100080003F0200083F0200083F0200083F0200084C
:100090003F0200083F0200083F0200083F0200083C
:1000A0003F0200083F0200083F0200083F0200082C
:1000B0003F0200083F0200083F0200083F0200081C
:1000C0003F0200083F0200083F0200083F0200080C
:1000D0003F0200083F0200083F0200083F020008FC
:1000E0003F0200083F0200083F0200083F020008EC
:1000F0003F0200083F0200083F0200083F020008DC
:100100003F0200083F0200083F0200083F020008CB
:100110003F0200083F0200083F0200083F020008BB
:100120003F0200083F0200083F0200083F020008AB
:100130003F0200083F0200083F0200083F0200089B
:1001400000000000000000000000000000000000AF
:100150003F0200083F0200083F0200083F0200087B
:100160003F0200083F0200083F0200083F0200086B
:100170003F0200083F0200083F0200083F0200085B
:100180003F02000800F002F800F03CF80AA090E8F6
:10019000000C82448344AAF10107DA4501D100F042
:1001A00031F8AFF2090EBAE80F0013F0010F18BFD3
:1001B000FB1A43F0010318474C0C00006C0C0000C4
:1001C000103A24BF78C878C1FAD8520724BF30C883
:1001D00030C144BF04680C60704700000023002455
:1001E00000250026103A28BF78C1FBD8520728BF47
:1001F00030C148BF0B6070471FB500F0F5FD1FBD53
:1002000010B510BD00F031F81146FFF7F5FF00F012
:100210004BFC00F04FF803B4FFF7F2FF03BC00F013
:1002200057F800000948804709480047FEE7FEE705
:10023000FEE7FEE7FEE7FEE7FEE7FEE7FEE7FEE796
:1002400004480549054A064B70470000FD020008B6
:100250008501000870000020700600207002002058
:1002600070020020704770477047754600F02CF808
:10027000AE4605006946534620F00700854618B093
:1002800020B5FFF7DDFFBDE820404FF000064FF03E
:1002900000074FF000084FF0000B21F00701AC46BB
:1002A000ACE8C009ACE8C009ACE8C009ACE8C009DA
:1002B0008D46704710B50446AFF300802046BDE878
:1002C0001040FFF7A8BF0000004870471000002052
:1002D00001491820ABBEFEE726000200704700BFB0
:1002E000FEE7704710B500F087F810BD00BFFEE7CD
:1002F00000BFFEE7704770477047704719480068B5
:1003000040F47000174908601748006820F00100A9
:10031000401C1549086000BF13480068C0F3400046
:100320000028F9D01048406820F003000E494860CA
:1003300000BF0D484068C0F381000028F9D10A4988
:1003400048600846006809490840074908600020DD
:1003500008634FF41F008860C803024980390860B1
:100360007047000088ED00E000100240FFFFF2FE41
:1003700000BFFEE70EB501214FF4C01000F0F4F805
:100380000021084600F090FA684600F0DBF90120F1
:100390008DF8090000208DF80000012001908DF8F3
:1003A0000800684600F0DCF9032000F0F1FB0022B1
:1003B0001146062000F088FB0EBD00001CB501218F
:1003C0000B4800F0D1F8684600F062FA01208DF881
:1003D000070000208DF804008DF806000120009031
:1003E00018208DF805006946024800F0AFFA1CBDE0
:1003F000020018000008014010B5052000F068F95F
:10040000012000F0A7F90121074800F0F3FA50B9E4
:1004100006480078042803D101200449087002E04E
:1004200004200249087010BD0008014008000020A7
:100430000349496860F30711014A516070470000A1
:10044000001002400349496860F30A21014A5160E3
:1004500070470000001002400349496860F3CD2155
:10046000014A51607047000000100240012807D186
:100470000749496D21F030013031054A516505E0E9
:100480000349496D21F03001014A51657047000070
:1004900000100240052827D2DFE800F0030A1118F7
:1004A0001F00134A126861F30002114B1A601CE02E
:1004B0000F4A126861F310420D4B1A6015E00C4AA6
:1004C000126861F318620A4B1A600EE0084A126A59
:1004D00061F30002064B1A6207E0054A526A61F3B3
:1004E0000002034B5A6200E000BF00BF70470000EB
:1004F0000010024010B501460020094B03EB1142E9
:10050000126801F01F040123A3401A4001F01F04E8
:100510000123A3409A4200D000E0012010BD00005A
:10052000001002400349496D60F30D31014A5165E5
:10053000704700000010024030B50024002500E0A4
:10054000641C1120FFF7D6FF012802D0B4F5405FEC
:10055000F6D31120FFF7CEFF012801D0002500E0DF
:100560000125284630BD000010B501290DD10E4BE4
:1005700003EB1042126800F01F040123A3401A434A
:10058000094C04EB10431A600CE0074B03EB1042DC
:10059000126800F01F040123A3409A43024C04EBAD
:1005A00010431A6010BD00000010024010B530B9B1
:1005B000184B5B6823F48033164C636017E0154BCF
:1005C0005B6823F4803303F58033124C63600128A9
:1005D00005D123465B6823F40033636007E00D4BCD
:1005E0005B6823F4003303F500330A4C6360094B66
:1005F0005B6861F39543074C63600C09054B5B68CE
:1006000064F35E73034C636023465B6862F3DF73DD
:10061000636010BD001002401448006820F0010023
:10062000401C1249086000BF10480068C0F3400039
:100630000028F9D00D48406820F003000B494860BD
:1006400000BF0A484068C0F381000028F9D107497B
:1006500048600846006806490840044908600020D0
:1006600008634FF41F0088607047000000100240CC
:10067000FFFFF2FE0349496860F30101014A51603E
:10068000704700000010024002484068C0F381003B
:10069000704700000010024010B5042000F090FBED
:1006A000074800680749B0FBF1F0074908600846B1
:1006B00000684FF47A7148430449086010BD000097
:1006C0000C00002040420F00000000200400002029
:1006D000002131E032280ADD194A126832235A43D8
:1006E0004FF0E0235A61A0F1320290B206E0144AC2
:1006F000126842434FF0E0235A61002000224FF07D
:10070000E0239A611A46126942F001021A6100BFA1
:100710004FF0E022116901F001021AB101F48032B8
:10072000002AF5D04FF0E022126922F001024FF0CA
:10073000E0231A6100229A610028CBD170470000A3
:10074000040000200021417241600121017201700A
:100750007047000001490860704700001404014020
:10076000014600204868234A12688243214B1A60E0
:100770001A1D126882431B1D1A604A7A0AB30A784E
:100780002AB91A1F126802431B1F1A6006E0194A91
:10079000121D12680243174B1B1D1A60154A0832BE
:1007A00012688243134B08331A601A1D1268824381
:1007B0001B1D1A600A7A2AB91A1F126802431B1FEE
:1007C0001A6016E00A7A012A07D10A4A0C32126826
:1007D0000243084B0C331A600BE0064A08321268D9
:1007E0000243044B08331A601A1D126802431B1D92
:1007F0001A607047000401400146002001F0E04209
:1008000021F0E0414AB1B2F1805F0CD0B2F1005F5B
:100810000FD0B2F1804F19D112E00E4BDB680B40C4
:1008200003B1012013E00B4BDB6C0B4003B1012043
:100830000DE0084B8C331B680B4003B1012006E030
:10084000044BDB690B4003B1012000E000BF00BF97
:100850007047000000200240014908607047000016
:10086000982002400149086070470000882002403B
:10087000044805490860054803498439C1F88400E3
:10088000704700002301674584200240AB89EFCD0B
:100890004FF6FF71016000218171017104214171E6
:1008A0000121C1717047000010B500228B071C0F99
:1008B0000F2303FA04F28B1033B1012B13D0022B58
:1008C00020D0032B3CD12CE01F4B9B6893431E4C44
:1008D000A36023469B688C07240F00FA04F423438B
:1008E000194CA3602DE0184BDB689343164CE36072
:1008F0002346DB688C07240F00FA04F42343124CD0
:10090000E3601EE0104B1B6993430F4C23612346A9
:100910001B698C07240F00FA04F423430A4C23615B
:100920000FE0094B5B699343074C636123465B69A6
:100930008C07240F00FA04F42343034C636100E0A6
:1009400000BF00BF10BD000000000140F0B50A4626
:100950001588ABB29579032D01D100241AE0957961
:1009600065B9557905F00F045579182D01D103614A
:1009700010E05579282D0DD143610BE0957905F0F4
:100980000805167906F004063543D67906F0030605
:1009900045EA0604DDB2A5B1002110E001258D4035
:1009A0001D405DB105688F000F26BE40B543056050
:1009B00005688E0004FA06F635430560491C0829CF
:1009C000ECD3FF2B15DD1B12002110E001258D401B
:1009D0001D405DB145688F000F26BE40B5434560A0
:1009E00045688E0004FA06F635434560491C08291F
:1009F000ECD3F0BD0246002093680B408B4200D040
:100A000000E0012070470000F0B50C46104F07EBE6
:100A10001062C0F30741C0F30725C6B2C5F1200735
:100A2000A7EB010C4FF0FF3707FA0CF3C5F12007D5
:100A30007F1AFB40CB408B4017689F4317602CB157
:100A400006FA01FC176847EA0C071760F0BD0000C2
:100A5000000001401CB501210C48FFF785FD6846E8
:100A6000FFF716FF01208DF8070000208DF8040025
:100A700010208DF806004002009004208DF805003B
:100A800069460348FFF762FF1CBD00000400180020
:100A9000001001400348C06880F400500149C8605C
:100AA000704700000010014000F0D6F800F084F814
:100AB000FFF7F2FDFFF782FCFFF75CFCFFF7CAFFD0
:100AC000FFF39EFA00BFFEE72DE9F0470B46144600
:100AD0004FF0000C00BF2C4A1268C2F302211D46E1
:100AE00026460A46C2F10709B9F1040F02D94FF0B0
:100AF000040901E0C2F10709C84602F10409B9F18D
:100B0000070F02D24FF0000901E0A2F103094F469E
:100B10004FF0010909FA08F9A9F1010909EA0509E3
:100B200009FA07F94FF0010A0AFA07FAAAF1010ACD
:100B30000AEA060A49EA0A09CC4601466246002941
:100B400004DB15072E0E114D6E5407E015072F0E0E
:100B50000D4D0C3501F00F06361FAF5500BF014695
:100B600000290DDB00BF00BF01F01F050122AA40D4
:100B70004D09AD0005F1E025C5F8002100BF00BF1B
:100B800000BFBDE8F08700000CED00E000E400E0ED
:100B900000BF00F00702064B19684FF6FF0319402B
:100BA000044B0B4343EA0221014B196000BF70471D
:100BB0000CED00E00000FA051CB501214FF4C01057
:100BC000FFF7D2FC01211E48FFF7CEFC01211C4893
:100BD000401CFFF7C9FC6846FFF75AFE01208DF85C
:100BE000070000208DF8040008208DF8060004207E
:100BF0008DF805008001009069461248FFF7A6FEB7
:100C000040F6C240009069460F48FFF79FFE012161
:100C10000E48FFF7F9FE0220FFF724FE00BF0C4844
:100C2000FFF7EAFD0028FAD1FFF722FE00BF0948CE
:100C30000068C0F3C0100028F9D1FFF70DFE1CBDFD
:100C40000200180000080140000C014009040030B7
:100C5000010000209020024010B5FFF7DDFC0121CB
:100C60000846FFF717FC00BFFFF766FC0028FBD023
:100C700001223B210220FFF799FC0020FFF752FCE4
:100C800001210220FFF706FC00BF1920FFF732FC0C
:100C90000128FAD10020FFF7CBFB0420FFF7DCFB93
:100CA0000420FFF7CFFB0120FFF7E0FB0220FFF756
:100CB000E1FC00BFFFF7E8FC0228FBD10020FFF7B2
:100CC000D5FB00F001F810BD2DE9F0470026002407
:100CD00000250027A046A146FFF7D6FC8246BAF1C0
:100CE000000F06D0BAF1010F15D0BAF1020F46D1AC
:100CF00015E02D48406DC0F3402040B12A48006BFC
:100D0000C0F3406018B129482949086002E0294829
:100D10002749086037E027482549086033E0224822
:100D20004068C0F3004720484068C0F383441E4831
:100D30004068C0F341750DB90F2C03D12801401C48
:100D4000044400E0A41C27B91B486043184908600C
:100D500014E015484068C0F3404058B11248406D57
:100D6000C0F30136B01C1349B1FBF0F060431049E9
:100D7000086003E00F4860430D49086003E00D4838
:100D80000B49086000BF00BF07484068C0F3031864
:100D90000A4810F808900648006820FA09F004494B
:100DA0000860BDE8F087000000100240006CDC0223
:100DB0000C00002000127A0000093D00F20D00082E
:100DC000042808D14FF0E021096941F004014FF0F7
:100DD000E022116107E04FF0E021096921F00401F0
:100DE0004FF0E022116170474FF04070E1EE100AC1
:100DF0007047000000000000000001020304060725
:100E000008090000240E0008000000201000000067
:100E1000C0010008340E0008100000206006000029
:100E2000DC010008000000000000000001000000DC
:040E300000127A0032
:020000040840B2
:1000000004E000F447FD642000F462FBF9E700001F
:040000050800018569
:00000001FF
