:020000040800F2
:10000000501B002065020008350300082D0300087E
:10001000310300081F030008C103000800000000AE
:10002000000000000000000000000000390300088C
:100030002303000800000000370300083B0300080A
:100040007F0200087F0200087F0200087F0200088C
:100050007F0200087F020008250300087F020008D5
:100060007F0200087F0200087F0200087F0200086C
:100070007F0200087F0200087F0200087F0200085C
:100080007F0200087F0200087F0200087F0200084C
:10009000B10300087F0200087F0200087F02000809
:1000A0007F0200087F0200087F0200087F0200082C
:1000B0007F0200087F0200087F0200087F0200081C
:1000C0007F0200087F0200087F0200087F0200080C
:1000D0007F0200087F0200087F0200087F020008FC
:1000E0007F0200087F0200087F0200087F020008EC
:1000F0007F0200087F0200087F0200087F020008DC
:100100007F0200087F0200087F0200087F020008CB
:100110007F0200087F0200087F0200087F020008BB
:100120007F0200087F0200087F0200087F020008AB
:100130007F0200087F0200087F0200087F0200089B
:1001400000000000000000000000000000000000AF
:100150007F0200087F0200087F0200087F0200087B
:100160007F0200087F0200087F0200087F0200086B
:100170007F0200087F0200087F0200087F0200085B
:100180007F02000800F002F800F05CF80AA090E896
:10019000000C82448344AAF10107DA4501D100F042
:1001A00051F8AFF2090EBAE80F0013F0010F18BFB3
:1001B000FB1A43F00103184764380000843800003C
:1001C0000A444FF0000C10F8013B13F0070408BF7D
:1001D00010F8014B1D1108BF10F8015B641E05D01B
:1001E00010F8016B641E01F8016BF9D113F0080FD0
:1001F0001EBF10F8014BAD1C0C1B09D16D1E58BF62
:1002000001F801CBFAD505E014F8016B01F8016B98
:100210006D1EF9D59142D6D370470000002300240B
:1002200000250026103A28BF78C1FBD8520728BF06
:1002300030C148BF0B6070471FB503F0E2FB1FBD24
:1002400010B510BD00F031F81146FFF7F5FF01F0D1
:10025000F5FC00F04FF803B4FFF7F2FF03BC00F029
:1002600057F800000948804709480047FEE7FEE7C5
:10027000FEE7FEE7FEE7FEE7FEE7FEE7FEE7FEE756
:1002800004480549054A064B704700003D03000835
:100290008501000850150020501B00205017002039
:1002A00050170020704770477047754600F02CF8D3
:1002B000AE4605006946534620F00700854618B053
:1002C00020B5FFF7DDFFBDE820404FF000064FF0FE
:1002D00000074FF000084FF0000B21F00701AC467B
:1002E000ACE8C009ACE8C009ACE8C009ACE8C0099A
:1002F0008D46704710B50446AFF300802046BDE838
:100300001040FFF7A8BF000000487047EC14002021
:1003100001491820ABBEFEE726000200704700BF6F
:10032000FEE7704710B500F0A7FD10BD00BFFEE767
:1003300000BFFEE770477047704770471948006874
:1003400040F47000174908601748006820F0010069
:10035000401C1549086000BF13480068C0F3400006
:100360000028F9D01048406820F003000E4948608A
:1003700000BF0D484068C0F381000028F9D10A4948
:10038000486008460068094908400749086000209D
:1003900008634FF41F008860C80302498039086071
:1003A0007047000088ED00E000100240FFFFF2FE01
:1003B00010B5024803F069F910BD00006801002083
:1003C00000BFFEE730B90A4A126822F00202084B69
:1003D0001A6006E0064A126822F00202921C044BE0
:1003E0001A60034A126861F30002014B1A607047F9
:1003F0000458014001490860704700000C58014052
:100400000149086070470000105801400149086028
:10041000704700001458014070B505462E467068BC
:10042000446A41F228002044406841F248012144D6
:10043000486041F228002044806841F2480121448C
:10044000886041F2280000592349884217D10121D0
:10045000304603F0B3F81F2811D141F228002044A0
:10046000407B02280BDC41F228002044807B0128DD
:1004700005DB41F228002044807B10280ADD202281
:100480000521284600F088FB02206070284600F015
:1004900089FB1FE0284600F0AFF818B1284600F0AD
:1004A00081FB17E02078012814D02078022811D091
:1004B000207804280ED0206A20B90021284600F0B8
:1004C00017FB07E0206A28B104F124012846226ABC
:1004D00000F034FB70BD00005553424310B5024696
:1004E0000C4613465868416A0020086210BD2DE989
:1004F000F04107460C46B846D8F80400456A05F1B5
:10050000240605F1100000EB8402083800EB84019A
:10051000204601F0CFFB05F1080050F82400401EF2
:10052000000E307005F1080050F82400401E000C49
:10053000707005F1080030F82400401E000AB07009
:1005400005F1080010F82400401EF07005F11000BD
:1005500050F82400000E307105F1100050F824000E
:10056000000C707105F1100030F82400000AB07121
:1005700005F1100010F82400F07108202862002016
:10058000BDE8F0812DE9F04304460D4616461F46AE
:10059000A046D8F80400D0F82490F11909F1080019
:1005A00050F82500814207D921220521204600F07C
:1005B000F3FA0120BDE8F0830020FBE72DE9F041CC
:1005C00004460E4627467868456A6878022806D1B0
:1005D0008121384603F06EF9002068700AE006F0C9
:1005E0008000802806D16878012803D001212046A8
:1005F00000F07EFABDE8F0812DE9F04105460126C4
:100600002F467868446A41F228002044C07B2328A2
:1006100076D00EDC1A282BD006DC00285ED003280A
:1006200053D012286DD111E01B2818D01E287BD181
:1006300030E02A2866D004DC25283DD0282873D154
:1006400031E02F2853D05A286ED11AE041F2280009
:100650002044417B284600F025F906466BE041F234
:1006600028002044417B284600F0C1FA064662E09B
:1006700041F228002044417B284600F05DF90646FF
:1006800059E041F228002044417B284600F03CF923
:10069000064650E041F228002044417B2846FFF7FF
:1006A0001DFF064647E041F228002044417B2846D2
:1006B00000F05AF906463EE041F228002044417B12
:1006C0002846FFF714FF064635E041F22800204493
:1006D000417B284600F0D6F906462CE041F228007E
:1006E0002044417B284600F08BFA064623E041F285
:1006F00028002044417B284600F09BFA06461AE079
:1007000009E011E041F228002044417B284600F036
:10071000CAFA06460FE041F228002044417B2846F1
:1007200000F04BF8064606E020220521284600F09E
:1007300033FA012600BF00BF3046BDE8F0812DE945
:10074000F04104460F4626467068456A287801281D
:1007500004D003280CD004280FD108E02046FFF76E
:100760004BFF18B10121204600F0C2F906E000BF9E
:100770000021204600F0BCF900E000BF00BFBDE84A
:10078000F0812DE9F04104460F4626467068456A1F
:100790002878022805D007280CD12046FFF73CFE18
:1007A00008E02046FFF728FF18B10121204600F09D
:1007B0009FF900BF00BFBDE8F0812DE9F041074679
:1007C0000D46B846D8F80400466A06F12404002015
:1007D00020706070A0700820E07006F1100000EB3F
:1007E0008502083800EB8501284601F063FA06F11E
:1007F000080050F82500401E000E207106F1080088
:1008000050F82500401E000C607106F1080030F819
:100810002500401E000AA07106F1080010F825000E
:10082000401EE0710220207206F1100050F82500F1
:10083000000C607206F1100030F82500000AA0726A
:1008400006F1100010F82500E0720C203062002044
:10085000BDE8F08170B505462E467068446A0720F1
:10086000207000206070012060600D4941F2480056
:100870000151002041F2480121448860002141F2E9
:1008800048000151002041F24801214448601F23E3
:1008900041F2280022180121304602F033FC70BDDD
:1008A000555342532DE9F047074688460024A14698
:1008B000BA46DAF80400456A41F228002844007C70
:1008C00000F0010010B10F4E05240FE0404601F08A
:1008D00081F8064641F2280028448068242804D282
:1008E00041F228002844846800E024242C6204E0BB
:1008F000641E315D05F124000155002CF8D14846F5
:10090000BDE8F0876C00002070B502460D46082156
:1009100014466068436A0820186206E0481EC1B2A7
:100920000448465C03F1240046540029F6D1002017
:1009300070BD00009400002070B502460D460821ED
:1009400014466068436A0820186206E0481EC1B277
:100950000448465C03F1240046540029F6D10020E7
:1009600070BD00008C0000202DE9F04780460F4646
:10097000C146D9F80400446A41F22800204400F13D
:100980000F052078072846D141F228002044007B3B
:1009900000F08000802807D020220521404600F08A
:1009A000FBF80120BDE8F087A8780006E97840EA66
:1009B0000140297940EA012069790843A061287A39
:1009C000E97940EA0120E06139464046D4E906234E
:1009D000FFF7D8FD08B10120E4E704F1100151F858
:1009E0002710A0694843A06104F1100151F82710B5
:1009F000E0694843E06141F2280020448068E169F1
:100A0000884206D020220521404600F0C5F801208A
:100A1000C8E7012020704FF480502062E069B0F5F3
:100A2000805F01D2E06901E04FF4805086B2334626
:100A300004F124023846A16901F074F930B13A2278
:100A40000421404600F0A8F80120ABE7B3B204F15E
:100A500024028121484602F08FFBA0693044A06146
:100A6000E069801BE06141F2480020448068801BFF
:100A700041F2480121448860E06908B904202070EF
:100A800000208FE7F0B503460F4612221C4660682F
:100A9000416A01F124050B4E02E0521EB05CA854DD
:100AA000002AFAD141F2280008448068122805D2B1
:100AB00041F2280008448068086201E012200862C0
:100AC0000020F0BD7400002070B505462E46706809
:100AD000446A072020700120607060601F2341F28B
:100AE000280022180121304602F00CFB70BD0000E6
:100AF0002DE9F04105460E462F467868446A41F2DA
:100B000048002044C6600C4941F2480001510720CA
:100B100020700D2341F2480022188121384602F04E
:100B20002BFB1F2341F2280022180121384602F036
:100B3000E9FABDE8F0810000555342532DE9F04732
:100B400006460F469046B146D9F80400446A41F281
:100B5000280020448068404501D9404603E041F226
:100B600028002044806885B241F248002044806813
:100B7000401B41F2480121448860002041F24801B5
:100B80002144C860032020702B463A468121484604
:100B900002F0F2FABDE8F087014B99701A747047C1
:100BA0007400002070B505462E467068446A41F214
:100BB00028002044806850B141F228002044007B86
:100BC00028B9607818B90121304602F073FE8121FE
:100BD000304602F06FFE6078022807D11F2341F2F1
:100BE000280022180121304602F08CFA70BD10B5A1
:100BF00002460C4613465868416A0020086210BD40
:100C00002DE9F04104468846002627467868456A63
:100C100041F228002844806838B12022052120466E
:100C2000FFF7BAFF0120BDE8F081002028623046BE
:100C3000F9E72DE9F04106460F46B046D8F8040022
:100C4000446A41F22800204400F10F0541F22800D7
:100C50002044007C00F00200022807D12422052154
:100C60003046FFF799FF0120BDE8F081A878000623
:100C7000E97840EA0140297940EA0120697908438E
:100C8000A061287AE97940EA0120E06139463046DE
:100C9000D4E90623FFF776FC08B10120E4E7002041
:100CA000206200BFE0E72DE9F04780460F46C146CD
:100CB000D9F80400446A41F22800204400F10F06EC
:100CC0002078072857D141F228002044007B00F00B
:100CD0008000802807D1202205214046FFF75CFFD5
:100CE0000120BDE8F087B0780006F17840EA0140C5
:100CF000317940EA012071790843A061307AF179B5
:100D000040EA0120E06139464046D4E90623FFF776
:100D100039FC08B10120E4E704F1100151F8271073
:100D2000A0694843A06104F1100151F82710E0695F
:100D30004843E06141F2280020448068E16988422C
:100D400006D0202205214046FFF726FF0120C8E7F4
:100D500002202070E069B0F5805F01D2E06901E017
:100D60004FF4805085B22B4604F1240201214846FD
:100D700002F0C8F93DE0E069B0F5805F01D2E069BA
:100D800001E04FF4805085B22B4604F1240238462E
:100D9000A16900F0EDFF30B13A2204214046FFF78F
:100DA000FBFE01209DE7A0692844A061E069401B8B
:100DB000E06141F2480020448068401B41F2480154
:100DC00021448860E06920B900214046FFF790FE89
:100DD0000FE0E069B0F5805F01D2E06901E04FF417
:100DE000805085B22B4604F124020121484602F0CE
:100DF00089F9002075E70EB501214FF4C01000F00D
:100E0000CDF90021084600F019FE684600F0D4FA3A
:100E100001208DF8090000208DF8000001200190CC
:100E20008DF80800684600F0D5FA032001F062F85A
:100E300000221146062000F0F9FF0EBD1CB501216D
:100E40000B4800F0ABF9684600F0ECFD01208DF88E
:100E5000070000208DF804008DF8060001200090A6
:100E600018208DF805006946024800F039FE1CBDC7
:100E7000020018000008014010B5052000F062FAD9
:100E8000012000F0A1FA0121074800F07DFE50B9D1
:100E900006480078042803D101200449087002E0C4
:100EA00004200249087010BD0008014058000020CD
:100EB00070B50446002526468121304602F068F8C8
:100EC0000121304602F064F8284670BD2DE9F0415A
:100ED0000446002526460021304602F06FFB0746F7
:100EE0002846BDE8F08101460020704702460020F8
:100EF000012904D0022903D0032903D101E002E033
:100F000001E000E000BF00BF704770B504460D4629
:100F1000002629462046FFF712FC304670BD70B50A
:100F2000044600252646402301228121304602F056
:100F3000BCF8402301221146304602F0B6F82046A4
:100F4000FFF788FC284670BD70B504460D460026A4
:100F500029462046FFF715FC304670BD2DE9F041CB
:100F600005460C464FF000082F467868466A207800
:100F700000F06000D0B1202851D16078FE2802D066
:100F8000FF280DD105E00122311D384601F0C7FED2
:100F90000AE02846FFF798FD384601F0D4FE03E04A
:100FA000384601F0DCFE00BF00BF3CE0607801285D
:100FB00017D0062804D00A2806D00B282CD10BE025
:100FC000384601F0CCFE28E0012241F2240031181D
:100FD000384601F0A4FE20E0618841F224008151EE
:100FE0001BE02179384601F0D3FF207900F0800022
:100FF000802806D1217940230122384602F055F895
:1010000005E0217940230122384602F04EF821798B
:101010002846FFF7D3FA00E000BF00BF03E03846E0
:1010200001F09DFE00BF00BF4046BDE8F0810146D3
:10103000002070470349496860F30711014A516075
:1010400070470000001002400349496860F30A211C
:10105000014A51607047000000100240034949688E
:1010600060F3CD21014A516070470000001002403A
:10107000012807D10749496D21F030013031054A77
:10108000516505E00349496D21F03001014A516580
:101090007047000000100240052827D2DFE800F06A
:1010A000030A11181F00134A126861F30002114B62
:1010B0001A601CE00F4A126861F310420D4B1A606F
:1010C00015E00C4A126861F318620A4B1A600EE0D0
:1010D000084A126A61F30002064B1A6207E0054AE9
:1010E000526A61F30002034B5A6200E000BF00BF86
:1010F000704700000010024010B501460020094B67
:1011000003EB1142126801F01F040123A3401A40AF
:1011100001F01F040123A3409A4200D000E0012007
:1011200010BD0000001002400349496D60F30D310D
:10113000014A5165704700000010024030B500249C
:10114000002500E0641C1120FFF7D6FF012802D023
:10115000B4F5405FF6D31120FFF7CEFF012801D090
:10116000002500E00125284630BD00000349096B39
:1011700060F35961014A116370470000001002409A
:1011800000B503460120FFF7F1FF0348406D63F30C
:1011900049200149486500BD0010024010B50129F1
:1011A0000DD10E4B03EB1042126800F01F04012317
:1011B000A3401A43094C04EB10431A600CE0074BA0
:1011C00003EB1042126800F01F040123A3409A436E
:1011D000024C04EB10431A6010BD000000100240E6
:1011E00010B530B9184B5B6823F48033164C63603C
:1011F00017E0154B5B6823F4803303F58033124C02
:101200006360012805D123465B6823F400336360E3
:1012100007E00D4B5B6823F4003303F500330A4C01
:101220006360094B5B6861F39543074C63600C098D
:10123000054B5B6864F35E73034C636023465B6835
:1012400062F3DF73636010BD001002401448006851
:1012500020F00100401C1249086000BF10480068DF
:10126000C0F340000028F9D00D48406820F003008A
:101270000B49486000BF0A484068C0F3810000285D
:10128000F9D1074948600846006806490840044902
:101290000860002008634FF41F008860704700005A
:1012A00000100240FFFFF2FE0349496860F30101AC
:1012B000014A516070470000001002400248406837
:1012C000C0F38100704700000010024006494968E1
:1012D00060F39751044A516082080349496862F3F8
:1012E000DB61014A516070470010024010B50446AE
:1012F000012C01D1FFF744FF0348406D64F308203F
:101300000149486510BD00000010024010B50420DE
:1013100000F008FF074800680749B0FBF1F00749F3
:101320000860084600684FF47A7148430449086031
:1013300010BD00006400002040420F0000000020AB
:1013400004000020002131E032280ADD194A126829
:1013500032235A434FF0E0235A61A0F1320290B297
:1013600006E0144A126842434FF0E0235A6100201D
:1013700000224FF0E0239A611A46126942F00102FE
:101380001A6100BF4FF0E022116901F001021AB1A9
:1013900001F48032002AF5D04FF0E022126922F0E9
:1013A00001024FF0E0231A6100229A610028CBD19C
:1013B00070470000040000200021417241600121BB
:1013C0000172017070470000014908607047000019
:1013D00014040140014600204868234A12688243F1
:1013E000214B1A601A1D126882431B1D1A604A7A2B
:1013F0000AB30A782AB91A1F126802431B1F1A601F
:1014000006E0194A121D12680243174B1B1D1A6091
:10141000154A083212688243134B08331A601A1DAA
:10142000126882431B1D1A600A7A2AB91A1F1268B1
:1014300002431B1F1A6016E00A7A012A07D10A4AE2
:101440000C3212680243084B0C331A600BE0064A58
:10145000083212680243044B08331A601A1D1268DE
:1014600002431B1D1A6070470004014003200B4912
:10147000C96801F0010109B100200EE00749C968FF
:10148000C1F3800109B1012007E00449C968C1F333
:10149000001109B1022000E0032070470020024043
:1014A00000B502460323FFF7E1FF034603E0FFF721
:1014B000DDFF0346521E0BB9002AF8D102B90423FE
:1014C000184600BD03200B49C96C01F0010109B1A8
:1014D00000200EE00749C96CC1F3800109B1012069
:1014E00007E00449C96CC1F3001109B1022000E012
:1014F000032070470020024000B502460323FFF797
:10150000E1FF034603E0FFF7DDFF0346521E0BB980
:10151000002AF8D102B90423184600BD70B504466C
:101520000D460326B4F1006F1DD3204884421AD81B
:101530004FF48010FFF7B4FF0646032E34D11C4849
:10154000006920F00100401C1949086125704FF422
:101550008010FFF7A5FF06461548006920F001003E
:101560001349086120E01148401C84421CD3B4F1A7
:10157000016F19D24FF48010FFF7BEFF0646032E0D
:1015800012D10B48006D20F00100401C084908658D
:1015900025704FF48010FFF7AFFF06460448006D3A
:1015A00020F0010002490865304670BDFFFF0708C2
:1015B000002002400146002001F0E04221F0E0411D
:1015C0004AB1B2F1805F0CD0B2F1005F0FD0B2F13E
:1015D000804F19D112E00E4BDB680B4003B10120A4
:1015E00013E00B4BDB6C0B4003B101200DE0084B0B
:1015F0008C331B680B4003B1012006E0044BDB6910
:101600000B4003B1012000E000BF00BF70470000A5
:10161000002002400648006920F080008030044924
:1016200008610846006D20F0800080300865704732
:101630000020024030B504460325B4F1006F22D3E8
:101640003B4884421FD84FF08040FFF729FF0546F2
:10165000032D6BD13748006920F00200801C35490A
:10166000086108464461006920F04000403008618C
:101670004804FFF715FF05462E48006920F00200D8
:101680002C49086152E02A48401C844221D3B4F11D
:10169000016F1ED2C002FFF72FFF0546032D45D173
:1016A0002448006D20F00200801C2249086508468D
:1016B0004465006D20F04000403008654804FFF7A5
:1016C0001BFF05461B48006D20F002001949086504
:1016D0002CE0B4F1046F29D34FF0FF3000F05EF836
:1016E0000546032D20D113489030006820F00200F9
:1016F000801C1049C1F890000846C0F894400D487D
:101700009030006820F0400040300A499031086075
:10171000281F00F043F805460648D0F8900020F056
:101720000200044990310860284630BD2846FCE795
:10173000FFFF0708002002400149086070470000D1
:10174000982002400448006820F080008030024960
:101750009039C1F89000704790200240014908601C
:10176000704700008820024003200B49096801F0FF
:10177000010109B100200EE007490968C1F38001A9
:1017800009B1012007E004490968C1F3001109B15A
:10179000022000E0032070478C20024000B5024682
:1017A0000323FFF7E1FF034603E0FFF7DDFF0346F6
:1017B000521E0BB9002AF8D102B90423184600BD05
:1017C000044805490860054803498439C1F8840084
:1017D000704700002301674584200240AB89EFCDAC
:1017E0000448054948600548486002484864034881
:1017F000486470472301674500200240AB89EFCD64
:1018000070B504460D460326B4F1006F1DD3314870
:1018100084421AD84FF48010FFF742FE0646032E8A
:1018200056D12D48006920F00100401C2A4908616A
:1018300025604FF48010FFF733FE06462648006906
:1018400020F001002449086142E02248401C844203
:101850001DD3B4F1016F1AD24FF48010FFF74CFE84
:101860000646032E34D11C48006D20F00100401CB8
:101870001949086525604FF48010FFF73DFE0646C4
:101880001548006D20F001001349086520E0B4F10F
:10189000046F1DD34FF48010FFF780FF0646032E20
:1018A00016D10D489030006820F00100401C0A4914
:1018B0009031086025604FF48010FFF76FFF0646F7
:1018C0000548D0F8900020F001000349C1F89000CD
:1018D000304670BDFFFF07080020024010B50549E3
:1018E00005A002F05EF809490880024848600846F1
:1018F00010BD0000EC1300204D6173732053746F12
:101900007261676520436F6E666967006001002041
:1019100000487047480100200048704740010020FF
:1019200010B5054905A002F03CF80A4908800248B4
:101930004860084610BD0000EC1300204D61737331
:101940002053746F7261676520496E7465726661B9
:1019500063650000600100200048704750010020CE
:1019600010B5054905A002F01CF806490880024898
:101970004860084610BD0000EC13002041727465F9
:1019800072790000600100200020704710B5054901
:1019900005A002F006F80949088002484860084698
:1019A00010BD0000EC13002041543332204D617310
:1019B000732053746F72616765000000600100203E
:1019C0000020704710B500F013F8014810BD00006A
:1019D000580100200146022905DA01EBC100034A43
:1019E00002EB800070470020FCE7000010000020A0
:1019F00070B50A480468001D0568001D0668344477
:101A000054B108220649204601F004FE042204498C
:101A10001031284601F0FEFD70BD0000E8F7FF1F01
:101A2000260100204FF6FF710160002181710171D4
:101A3000042141710121C1717047000010B50022DD
:101A40008B071C0F0F2303FA04F28B1033B1012B09
:101A500013D0022B20D0032B3CD12CE01F4B9B68D2
:101A600093431E4CA36023469B688C07240F00FA07
:101A700004F42343194CA3602DE0184BDB68934317
:101A8000164CE3602346DB688C07240F00FA04F44D
:101A90002343124CE3601EE0104B1B6993430F4C31
:101AA000236123461B698C07240F00FA04F42343A7
:101AB0000A4C23610FE0094B5B699343074C636158
:101AC00023465B698C07240F00FA04F42343034C7C
:101AD000636100E000BF00BF10BD000000000140D6
:101AE000F0B50A461588ABB29579032D01D10024D3
:101AF0001AE0957965B9557905F00F045579182DD7
:101B000001D1036110E05579282D0DD143610BE01F
:101B1000957905F00805167906F004063543D6795F
:101B200006F0030645EA0604DDB2A5B1002110E087
:101B300001258D401D405DB105688F000F26BE4018
:101B4000B543056005688E0004FA06F63543056066
:101B5000491C0829ECD3FF2B15DD1B12002110E0D6
:101B600001258D401D405DB145688F000F26BE40A8
:101B7000B543456045688E0004FA06F63543456076
:101B8000491C0829ECD3F0BD0246002093680B40A5
:101B90008B4200D000E0012070470000F0B50C46F9
:101BA000104F07EB1062C0F30741C0F30725C6B220
:101BB000C5F12007A7EB010C4FF0FF3707FA0CF334
:101BC000C5F120077F1AFB40CB408B4017689F432D
:101BD00017602CB106FA01FC176847EA0C0717607A
:101BE000F0BD0000000001401CB501210C48FFF7CA
:101BF000D5FA6846FFF716FF01208DF80700002090
:101C00008DF8040010208DF806004002009004209A
:101C10008DF8050069460348FFF762FF1CBD000010
:101C200004001800001001400348C06880F4005010
:101C30000149C860704700000010014008B500F07D
:101C4000BDF9FFF763FBFFF7F9F8FFF7D4F8FFF7EB
:101C5000CBFF00F063F9002000F088FA01210F4863
:101C6000FFF79CFA00221146142000F0DFF8002054
:101C70000B4B0C4A0C4900900C4800F0C8FF0B4875
:101C800000F062FF08E0FFF7CFFF094909786422FE
:101C900011FB02F0FFF756FBF5E7000017001C00F0
:101CA000C40000209C000020005C0040680100206F
:101CB0005800002030B50346174804684FF4A04090
:101CC000C0EB8420154D2860FF2C04D84FF48060B1
:101CD000134D286003E04FF40060114D286023B1DC
:101CE000012B0DD0022B12D110E00C4800680C4DD6
:101CF0002D68B0FBF5F0086009480068106007E047
:101D00004FF4006008604000106001E000E000BF98
:101D100000BF002030BD0000E0F7FF1F0C000020D6
:101D20000800002070B506460D461446002216B184
:101D3000012E17D10AE00D482918002203E0087887
:101D4000A054491C521C9A42F9D30BE005F10461DE
:101D5000002204E008682060091D241D121D9A421B
:101D6000F8D300BF00BF002070BD00000050000885
:101D70002DE9FF5F8A46934698460024C1460098A5
:101D800010B1012847D11CE025480AEB00073E4668
:101D90000514FFF725FD05E03046FFF74BFCA9EBE6
:101DA00005092E44A945F7D2002405E01BF80410CC
:101DB0003819FFF7B3FB641C4445F7D3FFF72AFC3F
:101DC00029E00AF104673E464FF4805500BF1548EC
:101DD000FFF7F0FB0028FAD1FFF7F2FC00BF124832
:101DE0000068C0F3C0100028F9D105E03046FFF7C5
:101DF00021FCA9EB05092E44A945F7D2002405E0F2
:101E00005BF804103819FFF7FBFC241D4445F7D399
:101E1000FFF798FC00BF00BF002004B0BDE8F09FB2
:101E20000050000801000020902002402DE9F047FA
:101E30000B4614464FF0000C00BF2C4A1268C2F348
:101E400002211D4626460A46C2F10709B9F1040FD0
:101E500002D94FF0040901E0C2F10709C84602F1B6
:101E60000409B9F1070F02D24FF0000901E0A2F115
:101E700003094F464FF0010909FA08F9A9F10109D0
:101E800009EA050909FA07F94FF0010A0AFA07FAFF
:101E9000AAF1010A0AEA060A49EA0A09CC460146F9
:101EA0006246002904DB15072E0E114D6E5407E023
:101EB00015072F0E0D4D0C3501F00F06361FAF55CF
:101EC00000BF014600290DDB00BF00BF01F01F0568
:101ED0000122AA404D09AD0005F1E025C5F8002119
:101EE00000BF00BF00BFBDE8F08700000CED00E0C0
:101EF00000E400E000BF00F00702064B19684FF64F
:101F0000FF031940044B0B4343EA0221014B1960C4
:101F100000BF70470CED00E00000FA051CB5012180
:101F20004FF4C010FFF73AF901211E48FFF736F9C8
:101F300001211C48401CFFF731F96846FFF772FD8C
:101F400001208DF8070000208DF8040008208DF88E
:101F5000060004208DF805008001009069461248B3
:101F6000FFF7BEFD40F6C240009069460F48FFF7FC
:101F7000B7FD01210E48FFF711FE0220FFF7EEFB2F
:101F800000BF0C48FFF716FB0028FAD1FFF718FC3A
:101F900000BF09480068C0F3C0100028F9D1FFF75E
:101FA000CBFB1CBD0200180000080140000C0140E2
:101FB00009040030010000209020024010B5FFF716
:101FC00045F901210846FFF767F800BFFFF7B6F8AB
:101FD0000028FBD001223B210220FFF701F900205D
:101FE000FFF7A2F801210220FFF756F800BF1920E1
:101FF000FFF782F80128FAD10020FFF71BF8042030
:10200000FFF72CF80420FFF71FF80120FFF730F846
:102010000220FFF749F900BFFFF750F90228FBD172
:102020000020FFF725F800F001F810BD2DE9F0477A
:102030000026002400250027A046A146FFF73EF910
:102040008246BAF1000F06D0BAF1010F15D0BAF1ED
:10205000020F46D115E02D48406DC0F3402040B13D
:102060002A48006BC0F3406018B12948294908602C
:1020700002E029482749086037E0274825490860D9
:1020800033E022484068C0F3004720484068C0F36E
:1020900083441E484068C0F341750DB90F2C03D12D
:1020A0002801401C044400E0A41C27B91B486043DD
:1020B0001849086014E015484068C0F3404058B122
:1020C0001248406DC0F30136B01C1349B1FBF0F06B
:1020D00060431049086003E00F4860430D49086001
:1020E00003E00D480B49086000BF00BF0748406887
:1020F000C0F303180A4810F808900648006820FA50
:1021000009F004490860BDE8F087000000100240B3
:10211000006CDC026400002000127A0000093D001F
:102120000C3A0008042808D14FF0E021096941F079
:1021300004014FF0E022116107E04FF0E02109694E
:1021400021F004014FF0E022116170474020014965
:1021500008807047600000200146034A10881288FA
:102160000A44014B1A8070476000002010B50446F5
:10217000BCB90120FFF7BAF801212748FFF70EF894
:1021800041F62C70FEF736F94FF4FA50FEF738F9A5
:1021900041F65470FEF73AF901210220FEF712F9D8
:1021A00038E01E4800681E4A811A904220D009DC9F
:1021B0001C49084478B14FEA6101084480B10844E1
:1021C00030BB11E018480844B0B117490844B8B111
:1021D0000844E8B918E04FF00100FFF777F818E07D
:1021E0000020FFF773F814E00320FFF76FF810E00A
:1021F0000220FFF76BF80CE00520FFF767F808E016
:102200000420FFF763F804E00620FFF75FF800E022
:1022100000BF00BF10BD00001600180064000020C1
:10222000000E2707009423FD00CA91FE016C21F0E7
:1022300002010164016E21F002010166704710B5D0
:102240000446206C20F001002064002060642065BA
:102250008020E06401224FF41E41204600F0C2FBC2
:1022600010BD016C21F0080108310164016C21F0FE
:102270000401091D0164704730B50246887A0028C0
:1022800064D18878012831D10878894B03EB80002C
:10229000D0F8000CC0F3801098B1087803EB8000F0
:1022A000D0F8000C48F68F73184040F0400040F41E
:1022B000004040F080000B787D4C04EB8303C3F8B2
:1022C000000C0B787A4C04EB8303D3F8003C48F6FF
:1022D000BF7403EA040040F4004343F080030C7829
:1022E000734D05EB8404C4F8003CE0E00878704BC3
:1022F00003EB8000D0F8000CC0F3803088B1087880
:1023000003EB8000D0F8000C48F68F73184040F4BF
:10231000404040F080000B78654C04EB8303C3F829
:10232000000C0B78624C04EB8303D3F8003C4BF6B3
:102330008F7403EA040040F4004343F080030C78F8
:102340005B4D05EB8404C4F8003CB0E00878584BC2
:1023500003EB8000D0F8000CC0F3801098B108782F
:1023600003EB8000D0F8000C48F68F73184040F063
:10237000400040F4004040F080000B784C4C04EBEF
:102380008303C3F8000C0878494B03EB8000D0F8B6
:10239000000CC0F3803088B1087803EB8000D0F8DF
:1023A000000C48F68F73184040F4404040F0800025
:1023B0000B783F4C04EB8303C3F8000C88780128AA
:1023C0003BD108783A4B03EB8000D0F8000C48F67C
:1023D0008F73184040F0400040F4004040F080000F
:1023E0000B78334C04EB8303C3F8000C0B7804EB3D
:1023F0008303D3F8003C48F6BF7403EA040040F4BA
:10240000004343F080030C78294D05EB8404C4F8A5
:10241000003C0B782C4604EB8303D3F8003C4BF6CE
:102420008F7403EA040040F4004343F080030C7807
:1024300005EB8404C4F8003C39E008781C4B03EB3E
:102440008000D0F8000C48F68F73184040F44040EC
:1024500040F080000B78164C04EB8303C3F8000CAB
:102460000B7804EB8303D3F8003C48F6BF7403EA0F
:10247000040040F4004343F080030C780C4D05EB5E
:102480008404C4F8003C0B782C4604EB8303D3F897
:10249000003C4BF68F7403EA040040F4004343F021
:1024A00080030C7805EB8404C4F8003C00BF30BD09
:1024B0000050004070B5044600230878FC4A02EB47
:1024C0008000D0F8000C48F68F72104020F00F000A
:1024D0004A7810430A78F64D05EB8202C2F8000CE8
:1024E000C87808B96B1511E0C878012801D100231C
:1024F0000CE0C878022802D14FF4C06306E0C87827
:10250000032803D14FF48063012088720878E84AD9
:1025100002EB8000D0F8000C48F68F72104020F4D7
:10252000C06018430A78E24D05EB8202C2F8000C45
:10253000887801287DD1887AE8BB8A88DD480568DB
:10254000087805EBC000DC4D2D6845F810200878B0
:10255000D74A02EB8000D0F8000CC0F3801098B18D
:10256000087802EB8000D0F8000C48F68F7210401B
:1025700040F0400040F4004040F080000A78CC4D2C
:1025800005EB8202C2F8000C0A78C94D05EB820205
:10259000D2F8002C48F6BF7502EA050080F0200052
:1025A00040F4004242F080020D78C14E06EB8505F2
:1025B000C5F8002C07E2FFE70878BD4A02EB80006F
:1025C000D0F8000C40F4807048F68F72104048F24A
:1025D000800210430A78B64D05EB8202C2F8000C67
:1025E0008A88B4480568087805EBC000B24D2D68AC
:1025F00045F81020CA88AF480568087805EBC00088
:10260000001DAD4D2D6845F810200878A84A02EB52
:102610008000D0F8000CC0F38010A8B1087802EB5D
:102620008000D0F8000C48F68F72104040F0400057
:1026300000E060E040F4004040F080000A789C4DEB
:1026400005EB8202C2F8000C0878994A02EB800080
:10265000D0F8000CC0F3803088B1087802EB80001D
:10266000D0F8000C48F68F72104040F4404040F023
:1026700080000A788E4D05EB8202C2F8000C0878C3
:102680008B4A02EB8000D0F8000C48F68F721040A5
:1026900040F4404040F080000A78854D05EB82020E
:1026A000C2F8000C0A7805EB8202D2F8002C4BF637
:1026B0008F7502EA050040F4004242F080020D7876
:1026C0007B4E06EB8505C5F8002C0A78354605EBF0
:1026D0008202D2F8002C48F6BF7502EA050080F0AD
:1026E000200040F4004242F080020D7806EB8505A0
:1026F000C5F8002C67E1887A002868D1CA886D483F
:102700000568087805EBC000001D6B4D2D6845F885
:1027100010200878664A02EB8000D0F8000CC0F365
:10272000803088B1087802EB8000D0F8000C48F6C1
:102730008F72104040F4404040F080000A785C4DB9
:1027400005EB8202C2F8000C5A480568087805EBD0
:10275000C000801D584D2D6805EB40020D893E2DAF
:102760000FDD0D8968110D7A05F01F050DB9451EA5
:10277000A8B24FF6FF7505EA802545F400451560BF
:102780000CE00D8968100D7A05F001050DB9451CA6
:10279000A8B24FF6FF7505EA802515600A78444D0A
:1027A00005EB8202D2F8002C4BF68F7502EA050089
:1027B00080F4805080F4005040F4004242F08002E7
:1027C0000D783B4E06EB8505C5F8002CFBE008783C
:1027D000374A02EB8000D0F8000C40F4807048F6D5
:1027E0008F72104048F2800210430A78304D05EB9A
:1027F0008202C2F8000C8A882E480568087805EB2A
:10280000C0002D4D2D6845F81020CA88294805685C
:10281000087805EBC000001D274D2D6845F81020F5
:1028200024480568087805EBC000801C224D2D68FF
:1028300005EB40020D893E2D0FDD0D8968110D7AE3
:1028400005F01F050DB9451EA8B24FF6FF7505EA44
:10285000802545F4004515600CE00D8968100D7A5F
:1028600005F001050DB9451CA8B24FF6FF7505EA44
:10287000802515600F480568087805EBC000801DAD
:102880000D4D2D6805EB40020D893E2D16DD0D899D
:1028900068110D7A05F01F050DB9451EA8B24FF657
:1028A000FF7505EA802545F40045156013E000003A
:1028B00000500040505C00405C0000200D89681012
:1028C0000D7A05F001050DB9451CA8B24FF6FF754C
:1028D00005EA8025156008783B4A02EB8000D0F8B5
:1028E000000CC0F3801098B1087802EB8000D0F89B
:1028F000000C48F68F72104040F0400040F4004059
:1029000040F080000A78304D05EB8202C2F8000CDE
:1029100008782D4A02EB8000D0F8000CC0F380301C
:1029200088B1087802EB8000D0F8000C48F68F726E
:10293000104040F4404040F080000A78224D05EB02
:102940008202C2F8000C08781F4A02EB8000D0F81F
:10295000000C48F68F72104040F0400040F40040F8
:1029600040F080000A78184D05EB8202C2F8000C96
:102970000A7805EB8202D2F8002C4BF68F7502EA3A
:10298000050080F4805080F4005040F4004242F092
:1029900080020D780C4E06EB8505C5F8002C0A78F0
:1029A000354605EB8202D2F8002C48F6BF7502EAE4
:1029B000050040F4004242F080020D7806EB8505E8
:1029C000C5F8002C00BF70BD00500040016C21F024
:1029D00008010164016C21F0040101647047CA43DD
:1029E00042647047012A03D1036C0B43036402E085
:1029F000036C8B4303647047F0B50346084F3F6890
:102A000007EB4100571C7E101D46002405E030F8FE
:102A1000027B2F80801CAD1C641CB442F7D3F0BD38
:102A20005C000020C26C61F30602C264C26C22F03A
:102A300080028032C2647047F0B50346084F3F6899
:102A400007EB4100571C7E101D46002405E02F882F
:102A500020F8027B801CAD1C641CB442F7D3F0BD8F
:102A60005C00002070B50446002504F5037694F858
:102A70002402022802D0032817D100E000BF70888A
:102A8000012811D1002084F82702B4F82A0220F08E
:102A90000200A4F82A02606804F5037182682046E7
:102AA0009047204600F04FF903E0204600F057F928
:102AB00000BF00BF284670BD70B5024601F080031C
:102AC000F3B101F07F0402F10C0303EB441004782E
:102AD0001C4D05EB8404D4F8004C48F6BF7504EA9D
:102AE000050383F0100383F0200343F4004444F013
:102AF00080040578134E06EB8505C5F8004C1EE0F2
:102B000001F07F0402F5867303EB441004780D4D49
:102B100005EB8404D4F8004C4BF68F7504EA0503EA
:102B200083F4805383F4005343F4004444F080045E
:102B30000578044E06EB8505C5F8004C00BF002360
:102B4000C37270BD0050004010B504462068FFF706
:102B50006DFB10BD70B505460E4606F07F0105F110
:102B60000C0000EB4114002E44D195F820020228FD
:102B70004CD1608B2189884211DD608B2189401AFC
:102B80006083608B2189884201DA608B00E02089B4
:102B9000034600212846626900F0EEFA36E0208BF9
:102BA0002189884217D1A08B2189884213DBA08B11
:102BB000B5F8221288420EDA0020208300231A463C
:102BC0001946284600F0D8FA00231A46314628460E
:102BD00000F098FA1AE06868C06838B195F82402E5
:102BE000032803D16868C16828468847284600F052
:102BF0008AF80BE06868406940B195F82402032820
:102C000004D16868314642692846904770BD2DE975
:102C1000F04104460D4616461F46DDF818806660F2
:102C2000A7602560012084F82402204600F0C8F93E
:102C30002068FFF704FBBDE8F08170B505460E463D
:102C400006F07F0105F5867000EB411426BB95F870
:102C5000200203282CD1608B2189884211DD608BF2
:102C60002189401A6083608B2189884201DA608B58
:102C700000E02089034631462846626900F042FAA6
:102C800016E06868006918B16868016928468847D5
:102C9000284600F058F80BE06868806940B195F864
:102CA0002402032804D16868314682692846904787
:102CB00070BD70B504460D4604F5057104F503704A
:102CC00000F03CFE012084F8200240F21220005B5C
:102CD000A4F8220294F80C0200F01F0020B1012891
:102CE00006D002280CD107E0204600F043F808E0A7
:102CF000204600F0AEFC04E0204600F07BF800E047
:102D000000BF00BF70BD10B50446052084F8200246
:102D100000231A461946204600F0F4F910BD2DE9AB
:102D2000F04105460E46144605F10C07BC837C8332
:102D3000022085F82002234632460021284600F072
:102D40001BFABDE8F08110B50446042084F8200287
:102D500000231A461946204600F00EFA10BD10B5A1
:102D600004460021204600F0A5FD8021204600F009
:102D7000A1FD10BD70B50446002504F5037630783A
:102D800000F0600038B1606804F503718268204685
:102D90009047284670BD40F20D20005D0A2822D2DF
:102DA000DFE800F00509210D21111521191D20462C
:102DB00000F00EFC1BE02046FFF754FE17E0204613
:102DC00000F062FD13E0204600F0D0FC0FE020464A
:102DD00000F07BFB0BE0204600F04CFB07E02046B8
:102DE00000F0EEFC03E02046FFF7B9FF00BF00BF94
:102DF0002846CFE72DE9F04104464FF0000804F5DE
:102E000003773D79387800F06000202805D16068AC
:102E100004F50371826820469047787820B1012834
:102E200035D003287DD15AE094F82402022802D03C
:102E3000032826D107E005F07F0018B12946204677
:102E400000F038FD21E005F0800030B105F07F0191
:102E500004F10C0000EB411605E005F07F0104F5DC
:102E6000867000EB4116F07A012801D1B08101E0B3
:102E70000020B081022206F10C012046FFF74FFF2F
:102E800003E02046FFF76BFF00BF00BF54E094F85B
:102E90002402022802D003281BD107E02DB1802D87
:102EA00003D02946204600F005FD16E0788878B961
:102EB00005F07F0048B129462046FFF7FDFD606818
:102EC00004F503718268204690472046FFF73BFFD8
:102ED00003E02046FFF743FF00BF00BF2CE094F85B
:102EE0002402022802D003281CD107E02DB1802D36
:102EF00003D02946204600F0DDFC17E0788830B981
:102F00002DB1802D03D02946204600F0D3FC606807
:102F100004F503718268204690472046FFF713FFAF
:102F200004E005E02046FFF71AFF00BF00BF03E002
:102F30002046FFF714FF00BF00BF4046BDE8F08108
:102F400010B504462068FFF78CF910BD10B5044693
:102F5000A07A80B9A078012806D1A088B8B92089C4
:102F6000FFF7FAF8A08012E0E08880B92089FFF727
:102F7000F3F8E0800BE0A08818B92089FFF7ECF89F
:102F8000A080E08818B92089FFF7E6F8E08010BD3E
:102F900070B504460D4605F0800030B105F07F01A4
:102FA00004F10C0000EB411605E005F07F0104F58B
:102FB000867000EB411631462068FFF75DF970BD61
:102FC0000146002000BF2BE001F10C0202EB401291
:102FD000107001F10C0202EB40125070012301F15C
:102FE0000C0202EB40129370002301F10C0202EB81
:102FF0004012138101F10C0202EB4012536101F106
:103000000C0202EB4012D38101F10C0202EB4012E0
:10301000938001F10C0202EB4012D380421CD0B22B
:103020000828D1DB00202AE001F5867202EB40126D
:10303000107001F5867202EB40125070002301F50A
:10304000867202EB4012937001F5867202EB401219
:10305000138101F5867202EB4012536101F586720D
:1030600002EB4012D38101F5867202EB4012D3804D
:1030700001F5867202EB40129380421CD0B2082800
:10308000D2DB70472DE9F04104462668002705E0B1
:1030900005F00F073946204600F0FEF8756C05F480
:1030A00000400028F4D1BDE8F0812DE9F047054645
:1030B0000E4617469846D5F8009006F0800040B9B5
:1030C00006F07F0105F5867000EB41140020A0702A
:1030D00007E006F07F0105F10C0000EB4114012030
:1030E000A07008F101004FF6FE7108402081E770E2
:1030F0002046FFF72BFF21464846FFF7DBF9BDE8E6
:10310000F08700002DE9F0410546144601F07F07E5
:1031100005F5867202EB471000264461C381002248
:103120000282C2890789BA4204DD0689C289921BDC
:10313000C28102E01E460022C2814F06DFF834C081
:103140000CEBD757D7F8007C4BF68F7C07EA0C02C4
:1031500082F4805282F4005242F4004747F0800724
:103160004FEA416CDFF80C8008EBDC5CCCF8007CAB
:10317000BDE8F081005000402DE9F04707460D46BC
:103180009146984605F07F0107F10C0000EB4114D1
:103190000026D7F800A0C4F81490A4F80E800020F0
:1031A0002082E0892189884204DD2689E089801B0C
:1031B000E08102E046460020E0812683A07A80B9C3
:1031C000A18832466069FFF737FC3048016805F096
:1031D0007F0001EBC000801C2D49096841F8106098
:1031E0003AE005F07F005AF82000C0F3801080B16B
:1031F0002648016805F07F0001EBC000801D2449CE
:10320000096841F81060E18832466069FFF714FCF4
:103210000FE01E48016805F07F0001EBC000801C34
:103220001B49096841F81060A18832466069FFF7C0
:1032300003FC6806174901EBD050D0F8000C48F6A3
:103240008F71084040F4404040F080006906114A08
:1032500002EBD151C1F8000C69060E4A02EBD151C4
:10326000D1F8001C48F6BF7201EA020080F010009D
:1032700080F0200040F4004141F080016A06054BD7
:1032800003EBD252C2F8001CBDE8F087505C00404E
:103290005C000020005000402DE9F04706460D4636
:1032A000D6F8009059F8258008F0800000283FD01B
:1032B00006F10C0000EB45146B4901EB8500D0F8DA
:1032C000000C48F60F710840674A02EB8501C1F80F
:1032D000000C6648006800EBC500801C6449096862
:1032E00031F81000C0F309002082218A6069084487
:1032F0006061E08900B125B929463046FFF72AFC14
:1033000005E0E389294630466269FFF735FF96F804
:10331000240202280BD196F82602002807DD96F831
:1033200026123068FFF77EFB002086F8260298E020
:1033300006F5867000EB451408F40060F8B14B48C0
:10334000006800EBC500801D4949096831F810008C
:10335000C0F309002082228AE18806F50570FFF794
:103360004BFB42485038006840F68F7108403F4997
:103370005039086029463046FFF79BFC71E008F49D
:10338000004000286DD0384901EB8500D0F8000CD2
:1033900040F68F710840344A02EB8501C1F8000CF9
:1033A000A07A80B93148006800EBC500801D304923
:1033B000096831F81000C0F30907E1883A466069EE
:1033C000FFF71AFB36E008F4804080B12748006818
:1033D00000EBC500801C2649096831F81000C0F3D5
:1033E0000907A1883A466069FFF706FB0FE01F480E
:1033F000006800EBC500801D1D49096831F8100008
:10340000C0F30907E1883A466069FFF7F5FA164903
:1034100001EB8500D0F8000C48F68F71084040F0B1
:10342000400040F4004040F080000F4A02EB85016C
:10343000C1F8000C208A38442082606938446061F9
:10344000E08918B12089B84200DC25B92946304608
:10345000FFF7F3FB05E0E389294630466269FFF791
:1034600051FEBDE8F087000000500040505C004075
:103470005C00002070B50446002504F50376F08852
:10348000012803D02046FFF76AFC1CE094F82402D0
:10349000022802D0032811D109E0002084F8280274
:1034A000012204F50A712046FFF739FC0AE00122E7
:1034B00004F229212046FFF732FC03E02046FFF703
:1034C0004EFC00BF00BF284670BD2DE9F047044602
:1034D0004FF00008C146002540F20E20005B0612A6
:1034E000082E4BD2DFE806F04A04090E4A4A41454D
:1034F000A16808688047054645E0A168886880475C
:10350000054640E040F20E20075D062F22D2DFE89C
:1035100007F003080D12171CA168086980470546CB
:1035200021E0A1684869804705461CE0A1688869D8
:103530008047054617E0A168C8698047054612E044
:10354000A168486A804705460DE0A168086A80477F
:10355000054608E0606804F50371826820469047DC
:103560004046BDE8F08700BF0DE02046FFF7F7FBBF
:1035700009E02046FFF7F3FB4046F2E72046FFF75D
:10358000EEFB4046EDE700BFB5B12888A0B140F2A0
:103590001220005B80B1298840F21220005B81423A
:1035A00001DA288802E040F21220005B81464A4698
:1035B00020466968FFF7B3FB4046D2E710B50246E4
:1035C00001F07F0402F5867000EB4413188A10BDE9
:1035D00070B50446002594F82402022802D003287E
:1035E00011D100E000BF94F8270228B1B4F82A02F4
:1035F00040F00200A4F82A02022204F22A21204606
:10360000FFF78DFB03E02046FFF7A9FB00BF00BFDB
:10361000284670BD30B50B46002100BF16E00A24D5
:10362000B4EB107F05D9302404EB107403F811407B
:1036300005E0412404EB10740A3C03F8114000013A
:1036400000254C00641C1D554C1CE1B29142E6DB88
:1036500030BD70B50446002504F5037694F82402C5
:1036600003280BD1606804F50371826820469047F7
:10367000F08810B92046FFF766FB03E02046FFF70D
:103680006EFB00BF00BF284670BD2DE9F041074624
:103690003E68746C356C04F4004010B13846FFF796
:1036A000F1FC04F4806038B14FF480613046FFF7DC
:1036B00096F9384600F037F804F4007050B105F47C
:1036C000007038B14FF400713046FFF788F9384682
:1036D00000F048F904F4807038B105F4807020B12E
:1036E0004FF480713046FFF77AF904F4006050B16E
:1036F00005F4006038B14FF400613046FFF76FF910
:10370000384600F039F904F4805050B105F4805087
:1037100038B1384600F063F94FF480513046FFF776
:103720005EF9BDE8F08110B50446FEF70FFD2046B6
:10373000FFF746FC4023002211462046FFF7B5FC68
:103740004023002280212046FFF7AFFC00212068A3
:10375000FFF768F9012084F824026068006A20B14C
:1037600060680121026A2046904710BD2DE9F041B2
:103770000446002704F50375A888D0B9E888C0B9C5
:10378000A87800F07F0694F82402032803D120468D
:10379000FFF7E5FA10E084F826621EB1022084F8F3
:1037A000240202E0012084F824022046FFF7CBFA2D
:1037B00002E02046FFF7D3FA3846BDE8F08100006A
:1037C00070B50446002604F50375A8782D490870E5
:1037D000A888002850D1E88800284DD194F8240208
:1037E000022802D0032842D115E02648007870B1A3
:1037F0002448007884F82902032084F824026068B1
:103800000168204688472046FFF79DFA02E02046DF
:10381000FFF799FA2FE01B48007870B9022084F86E
:1038200024021848007884F829026068416820461C
:1038300088472046FFF787FA18E094F829021149D3
:10384000097888420FD160684168204688470D4852
:10385000007884F82902606801682046884720467D
:10386000FFF771FA02E02046FFF76DFA03E0204609
:10387000FFF775FA00BF02E02046FFF770FA304606
:1038800070BD00006800002070B50446002504F5F6
:103890000376708801280AD184F82702606804F54D
:1038A00003718268204690472046FFF74CFA28466D
:1038B00070BD000070B5024601F08003E3B101F075
:1038C0007F0402F10C0303EB441004781A4D05EB5E
:1038D0008404D4F8004C48F6BF7504EA050383F06D
:1038E000100343F4004444F080040578124E06EBC4
:1038F0008505C5F8004C1CE001F07F0402F58673D5
:1039000003EB441004780C4D05EB8404D4F8004C10
:103910004BF68F7504EA050383F4805343F40044A7
:1039200044F080040578044E06EB8505C5F8004C8C
:1039300000BF0123C37270BD005000400A780270BE
:103940004A7842708B78CA7803EB022242800B7966
:103950004A7903EB022282808B79CA7903EB022237
:10396000C280704710B504466068C06918B16068CD
:10397000C1692046884710BD10B5044694F824025A
:1039800084F82502042084F824022046FFF7D8FAA0
:103990006068006A20B160680221026A2046904790
:1039A00010BDF0B50346002002241A460CE0451C69
:1039B000A8B212F8017B2546661CB4B24F55002709
:1039C0002546661CB4B24F551578002DEFD102255F
:1039D00005EB4005A8B2087003254D70F0BD10B589
:1039E00004462068FEF7F2FF94F8250284F82402CA
:1039F0006068006A20B160680321026A204690472F
:103A000010BD4FF04070E1EE100A7047000000005A
:103A10000000000001020304060708093C3A000800
:103A20000000002068010000C0010008003B000801
:103A300068010020E81900001C02000891720812B9
:103A40008033011F1E4154333220012E4469736BB1
:103A5000300959010D22322E3030244201126043C8
:103A60004040D3127A12705205720A021020620688
:103A7000131F0F1408B10E1B085D081AE7081ACDB2
:103A8000041A0B0C1A4904132F101B08ED10139481
:103A900003142019191B08C1041A11041A89041AE5
:103AA00059041A61041A8D041AC5041A210413DD7D
:103AB0001814081201320216403C2E20571D020134
:103AC0000203A5140902202008010104C0320904E0
:103AD000180A020806500507058102B62C070501E1
:103AE00007071A040309041A0332121AECC339C473
:103AF00012011A2046111A2008321A1A24088100CD
:040000050800018569
:00000001FF
