:020000040800F2
:10000000080D002035020008D5060008CD060008BE
:10001000D1060008BF0600086107000800000000C4
:10002000000000000000000000000000D9060008E9
:10003000C306000800000000D7060008DB06000821
:100040004F0200084F0200084F0200084F0200084C
:100050004F0200084F020008C50600084F020008C2
:100060004F0200084F0200084F0200084F0200082C
:100070004F0200084F0200084F0200084F0200081C
:100080004F0200084F0200084F0200084F0200080C
:10009000510700084F0200084F0200084F020008F5
:1000A0004F0200084F0200084F0200084F020008EC
:1000B0004F0200084F0200084F0200084F020008DC
:1000C0004F0200084F0200084F0200084F020008CC
:1000D0004F0200084F0200084F0200084F020008BC
:1000E0004F0200084F0200084F0200084F020008AC
:1000F0004F0200084F0200084F0200084F0200089C
:100100004F0200084F0200084F0200084F0200088B
:100110004F0200084F0200084F0200084F0200087B
:100120004F0200084F0200084F0200084F0200086B
:100130004F0200084F0200084F0200084F0200085B
:1001400000000000000000000000000000000000AF
:100150004F0200084F0200084F0200084F0200083B
:100160004F0200084F0200084F0200084F0200082B
:100170004F0200084F0200084F0200084F0200081B
:100180004F02000800F002F800F044F80AA090E8DE
:10019000000C82448344AAF10107DA4501D100F042
:1001A00039F8AFF2090EBAE80F0013F0010F18BFCB
:1001B000FB1A43F001031847C0320000E032000090
:1001C000103A24BF78C878C1FAD8520724BF30C883
:1001D00030C144BF04680C60704700000023002455
:1001E00000250026103A28BF78C1FBD8520728BF47
:1001F00030C148BF0B607047642900F09F807329AD
:1002000000F01F82002070471FB503F0F0F81FBDFB
:1002100010B510BD00F019FA1146FFF7F5FF01F017
:1002200015F800F037FA03B4FFF7F2FF03BC00F053
:100230003FFA00000948804709480047FEE7FEE70B
:10024000FEE7FEE7FEE7FEE7FEE7FEE7FEE7FEE786
:1002500004480549054A064B70470000DD060008C2
:100260008501000808070020080D0020080900206B
:10027000080900200FB41CB5074B06AA7B44694649
:100280000090059800F0B3F90020694600F0C2F92B
:100290001CBC5DF814FB00009503000070B504461B
:1002A00085690068C10601D5302600E02026C00718
:1002B00007D070BDD4E9012130469047206A401C28
:1002C00020626D1EF6D570BD70B504468569007854
:1002D000C00707D170BDD4E9012120209047206AD2
:1002E000401C20626D1EF6D570BD70B50C460546EB
:1002F000012A05D02878800600D5EA69002302E0AB
:10030000012305E05B1C934202D2E05C0028F9D196
:10031000A869E618C01AA861286A18442862284605
:10032000FFF7BCFF04E0D5E9012114F8010B904769
:10033000B442F8D32846FFF7C7FF70BD2DE9F0415E
:100340000646002410687529314616A510D0AFF373
:100350000080002802DA404213A507E031688A07CE
:1003600001D512A502E0490704D511A5012401E039
:10037000AFF3008000210A2206F1240709E0B0FB58
:10038000F2FCB0FBF2F302FB1C003030785418464C
:10039000491C0028F3D123462A463046BDE8F041E7
:1003A00000F0C6B8000000002D0000002B00000087
:1003B000200000002DE9F05F894604464FF0000A56
:1003C000DFF824B1FB44C0F820A02046E16888474C
:1003D00000287DD0252806D0D4E901219047206A45
:1003E000401C2062F1E700255F462046E16888470F
:1003F0002028064607DB312E05D2B81910F8200C4C
:1004000008B10543F1E7A80701D525F00405C4F8B4
:100410001CA00027C4F818A02A2E09D0304600F0EE
:10042000A1F938B304EB8708303EC8F8186019E02A
:1004300059F8041B204604EB87029161E168884764
:10044000012F064618D1E069002820DA25F02005A2
:100450001DE0D8F8180000EB800006EB40003038B3
:10046000C8F818002046E1688847064600F07AF987
:100470000028EED1012F0AD02E2E08D12046E168A7
:1004800088477F1C0646022F45F02005C4DBA06983
:10049000002803DA404245F00105A061E80701D0D9
:1004A00025F01005A6B1A6F14100192802D8203682
:1004B00045F400654A463146204625604D46FFF723
:1004C0009BFE60B1012807D0ED1D25F0070000E07C
:1004D00007E000F1080978E705F1040975E73046FF
:1004E0007AE7206ABDE8F09F9E30000010B5431CFB
:1004F00002E010F8011B71B18107FAD14FF001320F
:1005000002C88C1A8C4314EAC211F9D0C01A0A0628
:1005100003D0C01E10BDC01A10BD0A0401D0801E39
:1005200010BD0902FCD0401E10BD704770477047D7
:100530002DE9F0470D4699469246044600F12408FD
:100540000168880604D5E06921F01001216000E00F
:100550000120A84201DD471B00E00027A1697A19AC
:1005600002EB0900081AA0612078C00602D42046D8
:10057000FFF794FE002608E0D4E901211AF80600EE
:100580009047206A401C761C20624E45F4DB2078A0
:10059000C0060AD52046FFF781FE06E0D4E9012116
:1005A00030209047206A401C2062381EA7F10107C6
:1005B000F4DC07E0D4E9012118F805009047206A2F
:1005C000401C2062281EA5F10105F3DC2046FFF740
:1005D0007BFE2078000602D50220BDE8F0870120CE
:1005E000FBE7000001694A1C02610878704700B50A
:1005F0008FB0CDE901310021059105497944CDE95C
:10060000031011466846FFF7D5FE0FB000BD00008D
:10061000E5FFFFFF0A6802F8010B0A60704710B59A
:10062000436913B1AFF3008001E0FFF75EFE0120E4
:1006300010BD127800F124010A7000224A700122D4
:10064000EDE711684FF0FF32E9E7754600F02CF84E
:10065000AE4605006946534620F00700854618B0AF
:1006600020B5FFF7F5FDBDE820404FF000064FF044
:1006700000074FF000084FF0000B21F00701AC46D7
:10068000ACE8C009ACE8C009ACE8C009ACE8C009F6
:100690008D46704710B50446AFF300802046BDE894
:1006A0001040FFF7C0BD000000487047A4060020BE
:1006B00001491820ABBEFEE726000200704700BFCC
:1006C000FEE7704710B500F0D9F810BD00BFFEE797
:1006D00000BFFEE7704770477047704719480068D1
:1006E00040F47000174908601748006820F00100C6
:1006F000401C1549086000BF13480068C0F3400063
:100700000028F9D01048406820F003000E494860E6
:1007100000BF0D484068C0F381000028F9D10A49A4
:1007200048600846006809490840074908600020F9
:1007300008634FF41F008860C803024980390860CD
:100740007047000088ED00E000100240FFFFF2FE5D
:1007500010B5024802F08FFC10BD00001C01002003
:1007600000BFFEE730380A2801D201207047002080
:100770007047000030B90A4A126822F00202084BA2
:100780001A6006E0064A126822F00202921C044B2C
:100790001A60034A126861F30002014B1A60704745
:1007A0000458014001490860704700000C5801409E
:1007B0000149086070470000105801400149086075
:1007C0007047000014580140014602480844B0F840
:1007D000000C704700600040024A0244C2F8001C4E
:1007E000704700000060004010B5012000F088F95B
:1007F000002000F085F910BD0EB501214FF4C010A6
:1008000000F00AFA0021084600F02AFC684600F0D1
:1008100025FB01208DF8090000208DF80000012043
:1008200001908DF80800684600F026FB032000F0D8
:1008300039FE00221146062000F0D0FD0EBD00005A
:100840001CB501210B4800F0E7F9684600F0FCFBFD
:1008500001208DF8070000208DF804008DF80600B7
:100860000120009018208DF805006946024800F02C
:1008700049FC1CBD020018000008014010B505200D
:1008800000F0B2FA012000F0F1FA0121074800F06F
:100890008DFC50B906480078042803D10120044992
:1008A000087002E004200249087010BD00080140F1
:1008B000120000200146012081F85200002081F83A
:1008C00053000860084800684865074882795A2044
:1008D000425405480279582042540348427959202D
:1008E00042540020704700002400002070B50446E8
:1008F000002526468221304602F040F8812130460C
:1009000002F03CF80121304602F038F8284670BD6C
:100910002DE9F0410446002726467068456A00210B
:10092000304602F041FB804695F84C00202808D163
:100930001FFA88F395F84C1005F14402204601F0A7
:10094000DFFC3846BDE8F0810146002070470246D2
:100950000020012904D0022903D0032903D101E09A
:1009600002E001E000E000BF00BF704730B5024682
:100970000C4611464D686B6A0020012583F85250E1
:1009800030BD2DE9F0410446002725466868466AD7
:10099000082302228221284602F07DF8402301220A
:1009A0008121284602F077F840230122114628468B
:1009B00002F071F84023321D0121284602F098F818
:1009C0003046FFF777FF3846BDE8F0812DE9F0416A
:1009D00004460F464FF0000825466868466A3946C7
:1009E000284602F0E1FAA6F85000012086F85300EC
:1009F0004046BDE8F0812DE9F04106460C464FF037
:100A0000000837467868456A207800F0600010B327
:100A1000202838D1E088E8B1207800F0800068B163
:100A2000E388617805F14402304601F069FCE28810
:100A300005F14401384601F068FE0BE0607805F8E6
:100A40004C0FE08868806A884C3D05F144013846C7
:100A500001F03DFE1BE06078062804D00A2806D08D
:100A60000B280DD109E0384601F06FFE09E00122A4
:100A70002946384601F049FE03E06088286000E01E
:100A800000BF00BF03E0384601F05FFE00BF00BFBB
:100A90004046BDE8F081014600207047034949689F
:100AA00060F30711014A51607047000000100240D6
:100AB0000349496860F30A21014A51607047000008
:100AC000001002400349496860F3CD21014A51609A
:100AD0007047000000100240012807D10749496D06
:100AE00021F030013031054A516505E00349496D77
:100AF00021F03001014A51657047000000100240AA
:100B00000349096A60F31041014A1162704700000D
:100B100000100240052827D2DFE800F0030A111870
:100B20001F00134A126861F30002114B1A601CE0A7
:100B30000F4A126861F310420D4B1A6015E00C4A1F
:100B4000126861F318620A4B1A600EE0084A126AD2
:100B500061F30002064B1A6207E0054A526A61F32C
:100B60000002034B5A6200E000BF00BF7047000064
:100B70000010024010B501460020094B03EB114262
:100B8000126801F01F040123A3401A4001F01F0462
:100B90000123A3409A4200D000E0012010BD0000D4
:100BA000001002400349496D60F30D31014A51655F
:100BB000704700000010024030B50024002500E01E
:100BC000641C1120FFF7D6FF012802D0B4F5405F66
:100BD000F6D31120FFF7CEFF012801D0002500E059
:100BE0000125284630BD00000349096B60F35961B7
:100BF000014A1163704700000010024000B503462F
:100C00000120FFF7F1FF0348406D63F349200149DC
:100C1000486500BD0010024010B501290DD10E4BF2
:100C200003EB1042126800F01F040123A3401A4393
:100C3000094C04EB10431A600CE0074B03EB104225
:100C4000126800F01F040123A3409A43024C04EBF6
:100C500010431A6010BD00000010024010B530B9FA
:100C6000184B5B6823F48033164C636017E0154B18
:100C70005B6823F4803303F58033124C63600128F2
:100C800005D123465B6823F40033636007E00D4B16
:100C90005B6823F4003303F500330A4C6360094BAF
:100CA0005B6861F39543074C63600C09054B5B6817
:100CB00064F35E73034C636023465B6862F3DF7327
:100CC000636010BD001002401448006820F001006D
:100CD000401C1249086000BF10480068C0F3400083
:100CE0000028F9D00D48406820F003000B49486007
:100CF00000BF0A484068C0F381000028F9D10749C5
:100D00004860084600680649084004490860002019
:100D100008634FF41F008860704700000010024015
:100D2000FFFFF2FE0349096A60F3CF31014A116205
:100D300070470000001002400349096A60F309216E
:100D4000014A1162704700000010024003494968DF
:100D500060F30101014A5160704700000010024039
:100D600002484068C0F38100704700000010024054
:100D70000649496860F39751044A51608208034963
:100D8000496862F3DB61014A51607047001002401C
:100D900010B50446012C01D1FFF730FF0348406D28
:100DA00064F308200149486510BD000000100240AE
:100DB00010B5042000F01AFE074800680749B0FB90
:100DC000F1F007490860084600684FF47A7148431B
:100DD0000449086010BD00001C00002040420F00C4
:100DE0000000002004000020002131E032280ADD4C
:100DF000194A126832235A434FF0E0235A61A0F196
:100E0000320290B206E0144A126842434FF0E023E7
:100E10005A61002000224FF0E0239A611A461269BD
:100E200042F001021A6100BF4FF0E022116901F0A7
:100E300001021AB101F48032002AF5D04FF0E0220D
:100E4000126922F001024FF0E0231A6100229A6138
:100E50000028CBD17047000004000020002141721F
:100E60004160012101720170704700000149086072
:100E70007047000014040140014600204868234ADE
:100E800012688243214B1A601A1D126882431B1D8F
:100E90001A604A7A0AB30A782AB91A1F12680243FA
:100EA0001B1F1A6006E0194A121D12680243174BF5
:100EB0001B1D1A60154A083212688243134B08330F
:100EC0001A601A1D126882431B1D1A600A7A2AB919
:100ED0001A1F126802431B1F1A6016E00A7A012AC1
:100EE00007D10A4A0C3212680243084B0C331A60CD
:100EF0000BE0064A083212680243044B08331A60BA
:100F00001A1D126802431B1D1A607047000401403D
:100F100010B5054905A002F03AFA0A4908800248CE
:100F20004860084610BD0000A40500205669727490
:100F300075616C20436F6D506F727420436F6E66E5
:100F4000696700001401002000487047FC00002081
:100F500000487047F400002010B5054905A002F0D4
:100F600016FA0B49088002484860084610BD000088
:100F7000A40500205669727475616C20436F6D5032
:100F80006F727420496E746572666163650000005B
:100F900014010020004870470401002010B50549E5
:100FA00005A002F0F4F906490880024848600846A6
:100FB00010BD0000A4050020417274657279000024
:100FC000140100200020704710B5054905A002F06B
:100FD000DEF90A49088002484860084610BD000052
:100FE000A405002041543332205669727475616C37
:100FF00020436F6D20506F72742020001401002078
:101000000020704710B500F005F8014810BD000041
:101010000C01002070B50A480468001D0568001D19
:101020000668344454B108220649204601F0E8FF1E
:10103000042204491031284601F0E2FF70BD00008F
:10104000E8F7FF1FDA0000204FF6FF710160002172
:1010500081710171042141710121C171704700004A
:1010600010B500228B071C0F0F2303FA04F28B101C
:1010700033B1012B13D0022B20D0032B3CD12CE019
:101080001F4B9B6893431E4CA36023469B688C07B1
:10109000240F00FA04F42343194CA3602DE0184BED
:1010A000DB689343164CE3602346DB688C07240F10
:1010B00000FA04F42343124CE3601EE0104B1B695A
:1010C00093430F4C236123461B698C07240F00FABE
:1010D00004F423430A4C23610FE0094B5B699343FB
:1010E000074C636123465B698C07240F00FA04F404
:1010F0002343034C636100E000BF00BF10BD00004C
:1011000000000140F0B50A461588ABB29579032D71
:1011100001D100241AE0957965B9557905F00F04DD
:101120005579182D01D1036110E05579282D0DD185
:1011300043610BE0957905F00805167906F0040681
:101140003543D67906F0030645EA0604DDB2A5B1BB
:10115000002110E001258D401D405DB105688F0024
:101160000F26BE40B543056005688E0004FA06F6FA
:1011700035430560491C0829ECD3FF2B15DD1B12F4
:10118000002110E001258D401D405DB145688F00B4
:101190000F26BE40B543456045688E0004FA06F64A
:1011A00035434560491C0829ECD3F0BD02460020B8
:1011B00093680B408B4200D000E00120704701464D
:1011C000CA1701EB92729210A1EB820292B96420CD
:1011D00091FBF0F200FB121050B94FF4C87091FB74
:1011E000F0F200FB121008B9012070470020FCE764
:1011F0000120FAE70020F8E71CB501210C48FFF7B1
:101200000BFD6846FFF720FF01208DF80700002046
:101210008DF8040010208DF8060040020090042094
:101220008DF8050069460348FFF76CFF1CBD000000
:1012300004001800001001400348C06880F400500A
:101240000149C860704700000010014088B00026C6
:10125000032000F027F900F015FBFFF7A9FDFFF7C9
:10126000EFFAFFF7C9FAFFF7C7FF40F2E670ADF8F3
:10127000180005208DF81A000A208DF81B000C209C
:101280008DF81C0000208DF81D008DF81E0006A8AA
:1012900000F07AF9002000F0CDFB01213A48FFF779
:1012A000BBFC00221146142000F098F80020374BB8
:1012B000374A38490090384801F08DF9364801F036
:1012C00027F95FE0012000F053F900283DD0FFF737
:1012D000B3FF00F09FF93148C07900EB800030493E
:1012E00001EB40002D4989792C4A52792B4B1B790F
:1012F000CDE90132CDE903102848C0780090274895
:101300008378028827A13248FEF7B4FF00F06AFA1A
:10131000012000F01FF900F065FA1F4890F8240240
:10132000032812D12B4D00BF2948FFF7DFF887B201
:101330003A462749184801F045F8012800D103E052
:10134000281EA5F10105EFD100BF2349124801F085
:1013500011F80446002C01DC012E13D1002C00DD15
:10136000012604B900261B4D00BF22461A490A482F
:1013700001F028F8012800D103E0281EA5F101059D
:10138000F3D100BF9EE7000017001C0054000020AE
:101390002C000020005C00401C0100200800002000
:1013A000F833000825642F25642F2564202530326A
:1013B000643A253032643A253032642025730D0AB0
:1013C00057654163742053747564696F0D0A00009A
:1013D0004804002020A10700480300202DE9F04721
:1013E0000B4614464FF0000C00BF2C4A1268C2F3A3
:1013F00002211D4626460A46C2F10709B9F1040F2B
:1014000002D94FF0040901E0C2F10709C84602F110
:101410000409B9F1070F02D24FF0000901E0A2F16F
:1014200003094F464FF0010909FA08F9A9F101092A
:1014300009EA050909FA07F94FF0010A0AFA07FA59
:10144000AAF1010A0AEA060A49EA0A09CC46014653
:101450006246002904DB15072E0E114D6E5407E07D
:1014600015072F0E0D4D0C3501F00F06361FAF5529
:1014700000BF014600290DDB00BF00BF01F01F05C2
:101480000122AA404D09AD0005F1E025C5F8002173
:1014900000BF00BF00BFBDE8F08700000CED00E01A
:1014A00000E400E000BF00F00702064B19684FF6A9
:1014B000FF031940044B0B4343EA0221014B19601F
:1014C00000BF70470CED00E00000FA050349096811
:1014D00060F30821014A116070470000007000406D
:1014E000002003490868091D096841EA0040704767
:1014F000182800403F210A4A1160020C08491431A3
:10150000096862F30F01064A14321160111D09685F
:1015100060F30F01121D11600F21014A1160704725
:10152000042800403F210A4A1160020C0849091DA5
:10153000096862F30301064A121D1160111D096852
:1015400060F30F01121D11600F21014A11607047F5
:101550000428004040F01001C943044A1268C2F355
:10156000001241EA0211014A11607047042800404C
:1015700001460020034A12680A400AB1012000E037
:10158000002070470428004010B5044601214FF0A8
:101590001C10FFF741FB01211C48FFF73DFB012018
:1015A000FFF794FF0420FFF70FF941F2342188423E
:1015B00025D0FFF719F901210320FFF7ABFA00BF8F
:1015C0001348FFF7D7FA0028FAD00120FFF7B4FB41
:1015D0000120FFF7A7FB00F00FF900F003F947F631
:1015E000FF70FFF79FFF00F0FDF8204600F08EF837
:1015F00041F234210420FFF7EFF8012010BD00F084
:10160000FBF800F0EFF80020F8E700001B001C00DA
:101610000100200070B5002600240025FFF760FFC0
:1016200006463648B6FBF0F435480088A04239D06B
:1016300033490C8040F2B2750EE0A8B2FFF7BFFD4F
:1016400038B1B4F5B77F02D3A4F5B77403E06D1CCD
:1016500005E0A4F26D146D1CB4F5B67FEDD800BFA3
:1016600028490D80002515E026490888FFF7A7FDC9
:1016700030B1012D04D11D2C01D31D3C09E00BE03C
:101680002148405DA04203D81F48405D241A00E075
:1016900002E06D1C1C2CE7D200BF681C1949887041
:1016A000601CC8701548B6FBF0F100FB11644FF4E4
:1016B0006160B4FBF0F0134908714FF46160B4FB52
:1016C000F0F100FB11403C21B0FBF1F00D494871F5
:1016D0004FF46160B4FBF0F100FB11403C21B0FB22
:1016E000F1F201FB1200074988710B46DA7899780C
:1016F000188800F08BF80349C87170BD8051010053
:1017000010000020080000204A34000870B504468C
:101710000025208840F2B271884204DB208840F620
:101720003301884201DD012070BD40F2B27609E04C
:10173000B0B2FFF744FD10B12548054401E025484B
:101740000544761C2088B042F2D8A078401EA070D4
:10175000002610E02048805D40F2A32110FB01F03C
:1017600005EBC0152088FFF72AFD18B1012E01D125
:101770001A480544761CA078B042EBD8E078401EA9
:10178000C0B240F2A32110FB01F005EBC015207997
:10179000C0EB4011C1EB002005EB00156079C0EBF8
:1017A000001005EB8005A079054401214FF01C10C5
:1017B000FFF732FA01210A48FFF72EFA0120FFF75E
:1017C00085FE2846FFF796FE00F00CF80020ABE7F8
:1017D0000085E2018033E1014A34000880510100B4
:1017E0001B001C0000BF03480068C0F34010002825
:1017F000F9D070470428004000BF03480068C0F3D8
:10180000C0000028F9D0704704280040F0B5034616
:101810000C461546642093FBF0F0C6B2642093FB9F
:10182000F0F700FB1730C1B2132E02DD01F16400A6
:10183000C1B20846CF1701EB977701EBA707BAB201
:10184000072092FBF0F700FB172082B25719601EA9
:10185000DFF82CC01CF80000384482B2CF1701EB2F
:101860009777BF10A1EB87071FB9032C01DA501E31
:1018700082B2072092FBF0F700FB1720C0B2F0BD48
:101880003E34000810B5FFF71FFA01210846FFF7A4
:1018900041F900BFFFF790F90028FBD001223B215E
:1018A0000220FFF7DBF90020FFF77CF9012102207D
:1018B000FFF730F900BF1920FFF75CF90128FAD1D2
:1018C0000020FFF7EBF80420FFF7FCF80420FFF7F7
:1018D000EFF80120FFF700F90220FFF737FA00BF09
:1018E000FFF73EFA0228FBD10020FFF7F5F800F0E1
:1018F00001F810BD2DE9F04700260024002500273F
:10190000A046A146FFF72CFA8246BAF1000F06D096
:10191000BAF1010F15D0BAF1020F46D115E02D48EA
:10192000406DC0F3402040B12A48006BC0F34060D6
:1019300018B129482949086002E029482749086068
:1019400037E027482549086033E022484068C0F363
:10195000004720484068C0F383441E484068C0F3F5
:1019600041750DB90F2C03D12801401C044400E03F
:10197000A41C27B91B4860431849086014E01548A7
:101980004068C0F3404058B11248406DC0F3013682
:10199000B01C1349B1FBF0F060431049086003E04C
:1019A0000F4860430D49086003E00D480B4908608B
:1019B00000BF00BF07484068C0F303180A4810F88A
:1019C00008900648006820FA09F004490860BDE85C
:1019D000F087000000100240006CDC021C000020B8
:1019E00000127A0000093D0056340008042808D18E
:1019F0004FF0E021096941F004014FF0E02211614C
:101A000007E04FF0E021096921F004014FF0E022E6
:101A1000116170474020014908807047180000207C
:101A20000146034A108812880A44014B1A80704705
:101A30001800002010B50446BCB90120FFF7A8F932
:101A400001212748FFF7E8F841F62C70FEF7AAFEBF
:101A50004FF4FA50FEF7ACFE41F65470FEF7AEFEBE
:101A600001210220FEF786FE38E01E4800681E4A6B
:101A7000811A904220D009DC1C49084478B14FEA11
:101A80006101084480B1084430BB11E018480844A3
:101A9000B0B117490844B8B10844E8B918E04FF0AC
:101AA0000100FFF765F918E00020FFF761F914E085
:101AB0000320FFF75DF910E00220FFF759F90CE071
:101AC0000520FFF755F908E00420FFF751F904E07D
:101AD0000620FFF74DF900E000BF00BF10BD000079
:101AE000160018001C000020000E2707009423FD9C
:101AF00000CA91FE016C21F002010164016E21F027
:101B000002010166704710B50446206C20F0010008
:101B100020640020606420658020E06401224FF48E
:101B20001E41204600F0C2FB10BD016C21F00801EF
:101B300008310164016C21F00401091D0164704742
:101B400030B50246887A002864D18878012831D1DE
:101B50000878894B03EB8000D0F8000CC0F38010AC
:101B600098B1087803EB8000D0F8000C48F68F732A
:101B7000184040F0400040F4004040F080000B78F6
:101B80007D4C04EB8303C3F8000C0B787A4C04EB18
:101B90008303D3F8003C48F6BF7403EA040040F422
:101BA000004343F080030C78734D05EB8404C4F8C4
:101BB000003CE0E00878704B03EB8000D0F8000CAC
:101BC000C0F3803088B1087803EB8000D0F8000CB7
:101BD00048F68F73184040F4404040F080000B7886
:101BE000654C04EB8303C3F8000C0B78624C04EBE8
:101BF0008303D3F8003C4BF68F7403EA040040F4EF
:101C0000004343F080030C785B4D05EB8404C4F87B
:101C1000003CB0E00878584B03EB8000D0F8000C93
:101C2000C0F3801098B1087803EB8000D0F8000C66
:101C300048F68F73184040F0400040F4004040F0F8
:101C400080000B784C4C04EB8303C3F8000C08783D
:101C5000494B03EB8000D0F8000CC0F3803088B112
:101C6000087803EB8000D0F8000C48F68F7318401A
:101C700040F4404040F080000B783F4C04EB83037D
:101C8000C3F8000C887801283BD108783A4B03EB65
:101C90008000D0F8000C48F68F73184040F04000E8
:101CA00040F4004040F080000B78334C04EB830399
:101CB000C3F8000C0B7804EB8303D3F8003C48F620
:101CC000BF7403EA040040F4004343F080030C783F
:101CD000294D05EB8404C4F8003C0B782C4604EB3A
:101CE0008303D3F8003C4BF68F7403EA040040F4FE
:101CF000004343F080030C7805EB8404C4F8003CF7
:101D000039E008781C4B03EB8000D0F8000C48F653
:101D10008F73184040F4404040F080000B78164C20
:101D200004EB8303C3F8000C0B7804EB8303D3F8B4
:101D3000003C48F6BF7403EA040040F4004343F05B
:101D400080030C780C4D05EB8404C4F8003C0B7840
:101D50002C4604EB8303D3F8003C4BF68F7403EA64
:101D6000040040F4004343F080030C7805EB840446
:101D7000C4F8003C00BF30BD0050004070B50446C0
:101D800000230878FC4A02EB8000D0F8000C48F6EB
:101D90008F72104020F00F004A7810430A78F64DF9
:101DA00005EB8202C2F8000CC87808B96B1511E087
:101DB000C878012801D100230CE0C878022802D19C
:101DC0004FF4C06306E0C878032803D14FF4806362
:101DD000012088720878E84A02EB8000D0F8000CF5
:101DE00048F68F72104020F4C06018430A78E24D24
:101DF00005EB8202C2F8000C887801287DD1887A30
:101E0000E8BB8A88DD480568087805EBC000DC4D32
:101E10002D6845F810200878D74A02EB8000D0F8EA
:101E2000000CC0F3801098B1087802EB8000D0F865
:101E3000000C48F68F72104040F0400040F4004023
:101E400040F080000A78CC4D05EB8202C2F8000C0D
:101E50000A78C94D05EB8202D2F8002C48F6BF750E
:101E600002EA050080F0200040F4004242F08002C7
:101E70000D78C14E06EB8505C5F8002C07E2FFE79B
:101E80000878BD4A02EB8000D0F8000C40F4807066
:101E900048F68F72104048F2800210430A78B64D1F
:101EA00005EB8202C2F8000C8A88B44805680878FD
:101EB00005EBC000B24D2D6845F81020CA88AF4828
:101EC0000568087805EBC000001DAD4D2D6845F88C
:101ED00010200878A84A02EB8000D0F8000CC0F36C
:101EE0008010A8B1087802EB8000D0F8000C48F60A
:101EF0008F72104040F0400000E060E040F400408D
:101F000040F080000A789C4D05EB8202C2F8000C7C
:101F10000878994A02EB8000D0F8000CC0F38030BA
:101F200088B1087802EB8000D0F8000C48F68F7278
:101F3000104040F4404040F080000A788E4D05EBA0
:101F40008202C2F8000C08788B4A02EB8000D0F8BD
:101F5000000C48F68F72104040F4404040F0800082
:101F60000A78854D05EB8202C2F8000C0A7805EB71
:101F70008202D2F8002C4BF68F7502EA050040F47D
:101F8000004242F080020D787B4E06EB8505C5F8D5
:101F9000002C0A78354605EB8202D2F8002C48F670
:101FA000BF7502EA050080F0200040F4004242F0D4
:101FB00080020D7806EB8505C5F8002C67E1887A6C
:101FC000002868D1CA886D480568087805EBC0000C
:101FD000001D6B4D2D6845F810200878664A02EB0D
:101FE0008000D0F8000CC0F3803088B1087802EB94
:101FF0008000D0F8000C48F68F72104040F440404A
:1020000040F080000A785C4D05EB8202C2F8000CBB
:102010005A480568087805EBC000801D584D2D68AA
:1020200005EB40020D893E2D0FDD0D8968110D7AFB
:1020300005F01F050DB9451EA8B24FF6FF7505EA5C
:10204000802545F4004515600CE00D8968100D7A77
:1020500005F001050DB9451CA8B24FF6FF7505EA5C
:10206000802515600A78444D05EB8202D2F8002CD9
:102070004BF68F7502EA050080F4805080F4005022
:1020800040F4004242F080020D783B4E06EB85059D
:10209000C5F8002CFBE00878374A02EB8000D0F846
:1020A000000C40F4807048F68F72104048F28002B5
:1020B00010430A78304D05EB8202C2F8000C8A8882
:1020C0002E480568087805EBC0002D4D2D6845F8B1
:1020D0001020CA8829480568087805EBC000001D53
:1020E000274D2D6845F8102024480568087805EB31
:1020F000C000801C224D2D6805EB40020D893E2D4D
:102100000FDD0D8968110D7A05F01F050DB9451E0B
:10211000A8B24FF6FF7505EA802545F40045156025
:102120000CE00D8968100D7A05F001050DB9451C0C
:10213000A8B24FF6FF7505EA802515600F480568BF
:10214000087805EBC000801D0D4D2D6805EB4002A1
:102150000D893E2D16DD0D8968110D7A05F01F05DC
:102160000DB9451EA8B24FF6FF7505EA802545F466
:102170000045156013E0000000500040505C004036
:10218000140000200D8968100D7A05F001050DB9C5
:10219000451CA8B24FF6FF7505EA80251560087842
:1021A0003B4A02EB8000D0F8000CC0F3801098B1DD
:1021B000087802EB8000D0F8000C48F68F721040CF
:1021C00040F0400040F4004040F080000A78304D7C
:1021D00005EB8202C2F8000C08782D4A02EB800061
:1021E000D0F8000CC0F3803088B1087802EB800092
:1021F000D0F8000C48F68F72104040F4404040F098
:1022000080000A78224D05EB8202C2F8000C0878A3
:102210001F4A02EB8000D0F8000C48F68F72104085
:1022200040F0400040F4004040F080000A78184D33
:1022300005EB8202C2F8000C0A7805EB8202D2F8A4
:10224000002C4BF68F7502EA050080F4805080F474
:10225000005040F4004242F080020D780C4E06EB34
:102260008505C5F8002C0A78354605EB8202D2F8C0
:10227000002C48F6BF7502EA050040F4004242F027
:1022800080020D7806EB8505C5F8002C00BF70BDF7
:1022900000500040016C21F008010164016C21F044
:1022A000040101647047CA4342647047012A03D1A4
:1022B000036C0B43036402E0036C8B4303647047BD
:1022C000F0B50346084F3F6807EB4100571C7E10EE
:1022D0001D46002405E030F8027B2F80801CAD1CD9
:1022E000641CB442F7D3F0BD14000020C26C61F34B
:1022F0000602C264C26C22F080028032C26470475F
:10230000F0B504461D4623465E68706A202902D057
:1023100021292CD114E01678577846EA07269778B9
:1023200046EA0746D77846EA07664665177958268B
:10233000375457795926375497795A26375417E026
:1023400090F854601670B0F85460360A5670466DB6
:10235000360C9670466D360ED6705826365C167161
:102360005926365C56715A26365C967100E000BFDD
:1023700000BFF0BD2DE9F04706460F460025A946EF
:10238000B046D8F80400446A94F8530010B900200D
:10239000BDE8F087002084F85300B4F85090002581
:1023A00004E0201D405D7855681C85B2B4F85000EB
:1023B000A842F6DC4023221D0121404600F098FB94
:1023C0004846E5E72DE9F04704460D4616464FF02E
:1023D000010927467868D0F8248098F8520048B15F
:1023E000002088F8520033462A468121384600F002
:1023F000B9FB01E04FF000094846BDE8F087000056
:10240000F0B50346084F3F6807EB4100571C7E10AC
:102410001D46002405E02F8820F8027B801CAD1C9F
:10242000641CB442F7D3F0BD1400002070B504461C
:10243000002504F5037694F82402022802D003282C
:1024400017D100E000BF7088012811D1002084F866
:102450002702B4F82A0220F00200A4F82A026068D9
:1024600004F50371826820469047204600F061F928
:1024700003E0204600F069F900BF00BF284670BDA8
:1024800070B5024601F08003F3B101F07F0402F160
:102490000C0303EB441004781C4D05EB8404D4F8C2
:1024A000004C48F6BF7504EA050383F0100383F07F
:1024B000200343F4004444F080040578134E06EBF7
:1024C0008505C5F8004C1EE001F07F0402F5867317
:1024D00003EB441004780D4D05EB8404D4F8004C54
:1024E0004BF68F7504EA050383F4805383F400539D
:1024F00043F4004444F080040578044E06EB85055F
:10250000C5F8004C00BF0023C37270BD00500040EE
:1025100010B504462068FFF7EDFA10BD70B505460A
:102520000E4606F07F0105F10C0000EB4114002E71
:1025300044D195F8200202284CD1608B2189884231
:1025400011DD608B2189401A6083608B218988426C
:1025500001DA608B00E02089034600212846626989
:1025600000F000FB36E0208B2189884217D1A08B38
:102570002189884213DBA08BB5F8221288420EDA3B
:102580000020208300231A461946284600F0EAFA64
:1025900000231A463146284600F0AAFA1AE0686875
:1025A000C06838B195F82402032803D16868C1686F
:1025B00028468847284600F09CF80BE06868406988
:1025C00040B195F82402032804D168683146426975
:1025D0002846904770BD2DE9F04104460D46164649
:1025E0001F46DDF818806660A7602560012084F82A
:1025F0002402204600F0DAF92068FFF784FABDE8EB
:10260000F08170B505460E4606F07F0105F586702F
:1026100000EB411426BB95F8200203282CD1608BD7
:102620002189884211DD608B2189401A6083608B8B
:102630002189884201DA608B00E020890346314617
:102640002846626900F054FA16E06868006918B11B
:102650006868016928468847284600F06AF80BE058
:102660006868806940B195F82402032804D168683D
:10267000314682692846904770BD70B504460D46C4
:1026800004F5057104F5037000F04EFE012084F896
:10269000200240F21220005BA4F8220294F80C02FF
:1026A00000F01F0020B1012806D002280CD107E05D
:1026B000204600F055F808E0204600F0C0FC04E099
:1026C000204600F08DF800E000BF00BF70BDF0B5FF
:1026D00005460E46144605F58677BC837C830320A9
:1026E00085F82002234632460021284600F000FAF1
:1026F000F0BD10B50446052084F8200200231A46D8
:102700001946204600F0F4F910BD2DE9F0410546C8
:102710000E46144605F10C07BC837C83022085F825
:102720002002234632460021284600F01BFABDE86D
:10273000F08110B50446042084F8200200231A46D4
:102740001946204600F00EFA10BD10B504460021CF
:10275000204600F0A5FD8021204600F0A1FD10BD1F
:1027600070B50446002504F50376307800F060006B
:1027700038B1606804F503718268204690472846A6
:1027800070BD40F20D20005D0A2822D2DFE800F083
:102790000509210D21111521191D204600F00EFCFF
:1027A0001BE02046FFF742FE17E0204600F062FDE6
:1027B00013E0204600F0D0FC0FE0204600F07BFB49
:1027C0000BE0204600F04CFB07E0204600F0EEFC5A
:1027D00003E02046FFF7B9FF00BF00BF2846CFE760
:1027E0002DE9F04104464FF0000804F503773D79E8
:1027F000387800F06000202805D1606804F5037186
:10280000826820469047787820B1012835D0032887
:102810007DD15AE094F82402022802D0032826D160
:1028200007E005F07F0018B12946204600F038FD8A
:1028300021E005F0800030B105F07F0104F10C00CB
:1028400000EB411605E005F07F0104F5867000EB12
:102850004116F07A012801D1B08101E00020B08159
:10286000022206F10C012046FFF74FFF03E020464D
:10287000FFF76BFF00BF00BF54E094F8240202286A
:1028800002D003281BD107E02DB1802D03D02946AB
:10289000204600F005FD16E0788878B905F07F0045
:1028A00048B129462046FFF7EBFD606804F5037147
:1028B0008268204690472046FFF73BFF03E0204612
:1028C000FFF743FF00BF00BF2CE094F8240202286A
:1028D00002D003281CD107E02DB1802D03D029465A
:1028E000204600F0DDFC17E0788830B92DB1802D4E
:1028F00003D02946204600F0D3FC606804F503713C
:102900008268204690472046FFF713FF04E005E069
:102910002046FFF71AFF00BF00BF03E02046FFF785
:1029200014FF00BF00BF4046BDE8F08110B504466B
:102930002068FFF7FAF810BD10B50446A07A80B9F8
:10294000A078012806D1A088B8B92089FFF768F8D7
:10295000A08012E0E08880B92089FFF761F8E0806C
:102960000BE0A08818B92089FFF75AF8A080E0880A
:1029700018B92089FFF754F8E08010BD70B50446FF
:102980000D4605F0800030B105F07F0104F10C0028
:1029900000EB411605E005F07F0104F5867000EBC1
:1029A000411631462068FFF7CBF870BD0146002084
:1029B00000BF2BE001F10C0202EB4012107001F19C
:1029C0000C0202EB40125070012301F10C0202EBE9
:1029D00040129370002301F10C0202EB40121381AC
:1029E00001F10C0202EB4012536101F10C0202EB07
:1029F0004012D38101F10C0202EB4012938001F1ED
:102A00000C0202EB4012D380421CD0B20828D1DB6A
:102A100000202AE001F5867202EB4012107001F5E9
:102A2000867202EB40125070002301F5867202EBB1
:102A30004012937001F5867202EB4012138101F58A
:102A4000867202EB4012536101F5867202EB40126E
:102A5000D38101F5867202EB4012D38001F58672B4
:102A600002EB40129380421CD0B20828D2DB7047A0
:102A70002DE9F04104462668002705E005F00F0720
:102A80003946204600F0FEF8756C05F40040002839
:102A9000F4D1BDE8F0812DE9F04705460E46174612
:102AA0009846D5F8009006F0800040B906F07F0106
:102AB00005F5867000EB41140020A07007E006F0D9
:102AC0007F0105F10C0000EB41140120A07008F11A
:102AD00001004FF6FE7108402081E7702046FFF7A5
:102AE0002BFF21464846FFF749F9BDE8F087000073
:102AF0002DE9F0410546144601F07F0705F5867281
:102B000002EB471000264461C38100220282C28981
:102B10000789BA4204DD0689C289921BC28102E09C
:102B20001E460022C2814F06DFF834C00CEBD75797
:102B3000D7F8007C4BF68F7C07EA0C0282F48052B7
:102B400082F4005242F4004747F080074FEA416C9C
:102B5000DFF80C8008EBDC5CCCF8007CBDE8F08191
:102B6000005000402DE9F04707460D469146984633
:102B700005F07F0107F10C0000EB41140026D7F8A7
:102B800000A0C4F81490A4F80E8000202082E089F0
:102B90002189884204DD2689E089801BE08102E0EA
:102BA00046460020E0812683A07A80B9A18832467B
:102BB0006069FFF725FC3048016805F07F0001EBF4
:102BC000C000801C2D49096841F810603AE005F00A
:102BD0007F005AF82000C0F3801080B126480168B9
:102BE00005F07F0001EBC000801D2449096841F811
:102BF0001060E18832466069FFF702FC0FE01E4872
:102C0000016805F07F0001EBC000801C1B490968CA
:102C100041F81060A18832466069FFF7F1FB680651
:102C2000174901EBD050D0F8000C48F68F710840DE
:102C300040F4404040F080006906114A02EBD15157
:102C4000C1F8000C69060E4A02EBD151D1F8001C04
:102C500048F6BF7201EA020080F0100080F0200008
:102C600040F4004141F080016A06054B03EBD2526B
:102C7000C2F8001CBDE8F087505C00401400002042
:102C8000005000402DE9F04706460D46D6F800906A
:102C900059F8258008F0800000283FD006F10C008C
:102CA00000EB45146B4901EB8500D0F8000C48F6A9
:102CB0000F710840674A02EB8501C1F8000C6648B5
:102CC000006800EBC500801C6449096831F81000F9
:102CD000C0F309002082218A606908446061E089AC
:102CE00000B125B929463046FFF718FC05E0E38915
:102CF000294630466269FFF735FF96F8240202281C
:102D00000BD196F82602002807DD96F826123068C7
:102D1000FFF7ECFA002086F8260298E006F58670A8
:102D200000EB451408F40060F8B14B48006800EB74
:102D3000C500801D4949096831F81000C0F3090039
:102D40002082228AE18806F50570FFF7B9FA424829
:102D50005038006840F68F7108403F49503908608C
:102D600029463046FFF789FC71E008F4004000284E
:102D70006DD0384901EB8500D0F8000C40F68F711A
:102D80000840344A02EB8501C1F8000CA07A80B9F2
:102D90003148006800EBC500801D3049096831F8F2
:102DA0001000C0F30907E1883A466069FFF788FA26
:102DB00036E008F4804080B12748006800EBC50089
:102DC000801C2649096831F81000C0F30907A18862
:102DD0003A466069FFF774FA0FE01F48006800EB9D
:102DE000C500801D1D49096831F81000C0F30907AE
:102DF000E1883A466069FFF763FA164901EB8500FE
:102E0000D0F8000C48F68F71084040F0400040F4C4
:102E1000004040F080000F4A02EB8501C1F8000C31
:102E2000208A38442082606938446061E08918B1A2
:102E30002089B84200DC25B929463046FFF7E1FB7E
:102E400005E0E389294630466269FFF751FEBDE897
:102E5000F087000000500040505C0040140000204B
:102E600070B50446002504F50376F088012803D0E8
:102E70002046FFF76AFC1CE094F82402022802D0E6
:102E8000032811D109E0002084F82802012204F56A
:102E90000A712046FFF739FC0AE0012204F22921D9
:102EA0002046FFF732FC03E02046FFF74EFC00BF50
:102EB00000BF284670BD2DE9F04704464FF00008DA
:102EC000C146002540F20E20005B0612082E4BD2B0
:102ED000DFE806F04A04090E4A4A4145A16808683D
:102EE0008047054645E0A16888688047054640E080
:102EF00040F20E20075D062F22D2DFE807F003081C
:102F00000D12171CA16808698047054621E0A168D9
:102F10004869804705461CE0A168886980470546E6
:102F200017E0A168C8698047054612E0A168486AB1
:102F3000804705460DE0A168086A8047054608E01D
:102F4000606804F503718268204690474046BDE8FA
:102F5000F08700BF0DE02046FFF7F7FB09E02046B1
:102F6000FFF7F3FB4046F2E72046FFF7EEFB404653
:102F7000EDE700BFB5B12888A0B140F21220005B98
:102F800080B1298840F21220005B814201DA288852
:102F900002E040F21220005B81464A462046696802
:102FA000FFF7B3FB4046D2E710B5024601F07F04BD
:102FB00002F5867000EB4413188A10BD70B5044604
:102FC000002594F82402022802D0032811D100E041
:102FD00000BF94F8270228B1B4F82A0240F002009A
:102FE000A4F82A02022204F22A212046FFF78DFBD0
:102FF00003E02046FFF7A9FB00BF00BF284670BDD5
:1030000030B50B46002100BF16E00A24B4EB107F58
:1030100005D9302404EB107403F8114005E0412475
:1030200004EB10740A3C03F81140000100254C0029
:10303000641C1D554C1CE1B29142E6DB30BD70B5FD
:103040000446002504F5037694F8240203280BD1E6
:10305000606804F50371826820469047F08810B9D3
:103060002046FFF766FB03E02046FFF76EFB00BF3C
:1030700000BF284670BD2DE9F04107463E68746CDC
:10308000356C04F4004010B13846FFF7F1FC04F44D
:10309000806038B14FF480613046FFF704F938465C
:1030A00000F037F804F4007050B105F4007038B146
:1030B0004FF400713046FFF7F6F8384600F048F953
:1030C00004F4807038B105F4807020B14FF4807141
:1030D0003046FFF7E8F804F4006050B105F40060F2
:1030E00038B14FF400613046FFF7DDF8384600F0A4
:1030F00039F904F4805050B105F4805038B13846A5
:1031000000F063F94FF480513046FFF7CCF8BDE88A
:10311000F08110B50446FEF77DFC2046FFF746FC23
:103120004023002211462046FFF7B5FC4023002231
:1031300080212046FFF7AFFC00212068FFF7D6F87A
:10314000012084F824026068006A20B160680121CF
:10315000026A2046904710BD2DE9F0410446002741
:1031600004F50375A888D0B9E888C0B9A87800F03C
:103170007F0694F82402032803D12046FFF7E5FADE
:1031800010E084F826621EB1022084F8240202E0D6
:10319000012084F824022046FFF7CBFA02E0204603
:1031A000FFF7D3FA3846BDE8F081000070B5044659
:1031B000002604F50375A8782D490870A888002812
:1031C00050D1E88800284DD194F82402022802D07A
:1031D000032842D115E02648007870B124480078D1
:1031E00084F82902032084F82402606801682046DC
:1031F00088472046FFF79DFA02E02046FFF799FA3C
:103200002FE01B48007870B9022084F82402184887
:10321000007884F829026068416820468847204683
:10322000FFF787FA18E094F82902114909788842D3
:103230000FD160684168204688470D48007884F8BF
:10324000290260680168204688472046FFF771FA26
:1032500002E02046FFF76DFA03E02046FFF775FA1B
:1032600000BF02E02046FFF770FA304670BD000054
:103270002000002070B50446002504F50376708810
:1032800001280AD184F82702606804F50371826876
:10329000204690472046FFF74CFA284670BD0000B4
:1032A00070B5024601F08003E3B101F07F0402F142
:1032B0000C0303EB441004781A4D05EB8404D4F896
:1032C000004C48F6BF7504EA050383F0100343F48D
:1032D000004444F080040578124E06EB8505C5F8DD
:1032E000004C1CE001F07F0402F5867303EB4410F0
:1032F00004780C4D05EB8404D4F8004C4BF68F7524
:1033000004EA050383F4805343F4004444F080044A
:103310000578044E06EB8505C5F8004C00BF012377
:10332000C37270BD005000400A7802704A78427043
:103330008B78CA7803EB022242800B794A7903EB3F
:10334000022282808B79CA7903EB0222C280704705
:1033500010B504466068C06918B16068C16920464C
:10336000884710BD10B5044694F8240284F825025D
:10337000042084F824022046FFF7D8FA6068006A27
:1033800020B160680221026A2046904710BDF0B566
:103390000346002002241A460CE0451CA8B212F88D
:1033A000017B2546661CB4B24F5500272546661C96
:1033B000B4B24F551578002DEFD1022505EB40052D
:1033C000A8B2087003254D70F0BD10B50446206802
:1033D000FEF760FF94F8250284F824026068006A12
:1033E00020B160680321026A2046904710BD4FF06B
:1033F0004070E1EE100A704753756E646179000009
:1034000000004D6F6E6461790000000054756573B3
:103410006461790000005765646E657364617900CA
:1034200054687572736461790000467269646179E9
:10343000000000005361747572646179000000033C
:10344000030601040602050003051F1C1F1E1F1EA4
:103450001F1F1E1F1E1F00000000000000000102B1
:10346000030406070809040000080000000000002B
:103470000002000100001000983400080000002045
:103480001C010000C0010008B43500081C01002028
:10349000EC0B0000DC010008000000000000000050
:1034A000000000000000000000000100006000407B
:1034B0004000000000127A000000000000C201007D
:1034C0000000080083090008ED080008F70900085B
:1034D00049090008110900086D090008CD09000814
:1034E000970A00084F09000848050020510F0008FE
:1034F00001100008490F0008C50F0008950F0008CB
:103500009D0F0008C90F000805100008590F00089A
:10351000110F000812010002020000403C2E40572B
:10352000000201020301000009024300020100C081
:103530003209040000010202010005240010010507
:10354000240100010424020205240600010705826B
:103550000308000109040100020A000000070581B8
:1035600002400000070501024000000004030904B6
:103570001A0300000000000000000000000000002E
:103580000000000000000000000000001200000029
:103590007C00002043000000900000200400000098
:1035A000D40000201A000000D80000200000000015
:0435B0000000000017
:040000050800018569
:00000001FF
